{
  "_format": "hh-sol-artifact-1",
  "contractName": "SkyXV3PoolDeployer",
  "sourceName": "contracts/SkyXV3PoolDeployer.sol",
  "abi": [
    {
      "anonymous": false,
      "inputs": [
        {
          "indexed": true,
          "internalType": "address",
          "name": "factory",
          "type": "address"
        }
      ],
      "name": "SetFactoryAddress",
      "type": "event"
    },
    {
      "inputs": [
        {
          "internalType": "address",
          "name": "factory",
          "type": "address"
        },
        {
          "internalType": "address",
          "name": "token0",
          "type": "address"
        },
        {
          "internalType": "address",
          "name": "token1",
          "type": "address"
        },
        {
          "internalType": "uint24",
          "name": "fee",
          "type": "uint24"
        },
        {
          "internalType": "int24",
          "name": "tickSpacing",
          "type": "int24"
        }
      ],
      "name": "deploy",
      "outputs": [
        {
          "internalType": "address",
          "name": "pool",
          "type": "address"
        }
      ],
      "stateMutability": "nonpayable",
      "type": "function"
    },
    {
      "inputs": [],
      "name": "factoryAddress",
      "outputs": [
        {
          "internalType": "address",
          "name": "",
          "type": "address"
        }
      ],
      "stateMutability": "view",
      "type": "function"
    },
    {
      "inputs": [],
      "name": "parameters",
      "outputs": [
        {
          "internalType": "address",
          "name": "factory",
          "type": "address"
        },
        {
          "internalType": "address",
          "name": "token0",
          "type": "address"
        },
        {
          "internalType": "address",
          "name": "token1",
          "type": "address"
        },
        {
          "internalType": "uint24",
          "name": "fee",
          "type": "uint24"
        },
        {
          "internalType": "int24",
          "name": "tickSpacing",
          "type": "int24"
        }
      ],
      "stateMutability": "view",
      "type": "function"
    },
    {
      "inputs": [],
      "name": "poolInitCodeHash",
      "outputs": [
        {
          "internalType": "bytes32",
          "name": "",
          "type": "bytes32"
        }
      ],
      "stateMutability": "pure",
      "type": "function"
    },
    {
      "inputs": [
        {
          "internalType": "address",
          "name": "_factoryAddress",
          "type": "address"
        }
      ],
      "name": "setFactoryAddress",
      "outputs": [],
      "stateMutability": "nonpayable",
      "type": "function"
    }
  ],
  "bytecode": "0x608060405234801561001057600080fd5b50615e4a806100206000396000f3fe608060405234801561001057600080fd5b50600436106100575760003560e01c806383c17c551461005c5780638903573014610084578063966dae0e146100ce578063d64efe91146100f2578063fad5359f1461010c575b600080fd5b6100826004803603602081101561007257600080fd5b50356001600160a01b0316610156565b005b61008c6101f4565b604080516001600160a01b0396871681529486166020860152929094168383015262ffffff16606083015260029290920b608082015290519081900360a00190f35b6100d661022a565b604080516001600160a01b039092168252519081900360200190f35b6100fa610239565b60408051918252519081900360200190f35b6100d6600480360360a081101561012257600080fd5b506001600160a01b03813581169160208101358216916040820135169062ffffff606082013516906080013560020b61026b565b6003546001600160a01b0316156101aa576040805162461bcd60e51b8152602060048201526013602482015272185b1c9958591e481a5b9a5d1a585b1a5e9959606a1b604482015290519081900360640190fd5b600380546001600160a01b0319166001600160a01b0383169081179091556040517fb4dd887347efc97a6ad35fc9824a2ac4c0a6a04344d89bf05f3308c854325a6490600090a250565b600054600154600280546001600160a01b03938416939283169281169162ffffff600160a01b83041691600160b81b9004900b85565b6003546001600160a01b031681565b60006040518060200161024b906103f9565b6020820181038252601f19601f8201166040525080519060200120905090565b6003546000906001600160a01b031633146102cd576040805162461bcd60e51b815260206004820152601c60248201527f6f6e6c7920666163746f72792063616e2063616c6c206465706c6f7900000000604482015290519081900360640190fd5b6040805160a0810182526001600160a01b03888116808352888216602080850182905292891684860181905262ffffff898116606080880182905260028b810b6080998a01819052600080546001600160a01b03199081169099179055600180548916881790558154909716851762ffffff60a01b1916600160a01b84021762ffffff60b81b1916600160b81b97820b9094169690960292909217909455865180860193909352828701919091528181019290925284518082039092018252909201928390528151910120906103a2906103f9565b8190604051809103906000f59050801580156103c2573d6000803e3d6000fd5b50600080546001600160a01b0319908116909155600180549091169055600280546001600160d01b03191690559695505050505050565b615a0e806104078339019056fe6101606040523480156200001257600080fd5b503060601b60805260408051630890357360e41b81529051600091339163890357309160048082019260a092909190829003018186803b1580156200005657600080fd5b505afa1580156200006b573d6000803e3d6000fd5b505050506040513d60a08110156200008257600080fd5b508051602080830151604084015160608086015160809096015160e896871b6001600160e81b0319166101005291811b6001600160601b031990811660e05292811b831660c0529390931b1660a052600282810b900b90921b610120529150620000f79082906200010f811b62002d4c17901c565b60801b6001600160801b03191661014052506200017d565b60008082600281900b620d89e719816200012557fe5b05029050600083600281900b620d89e8816200013d57fe5b0502905060008460020b83830360020b816200015557fe5b0560010190508062ffffff166001600160801b038016816200017357fe5b0495945050505050565b60805160601c60a05160601c60c05160601c60e05160601c6101005160e81c6101205160e81c6101405160801c6157bf6200024f600039806121185280614cbe5280614cf5525080610cae5280612afd5280614d295280614d5b525080610d9d5280611ae25280611b195280612b455250806112dd5280611b9c528061200f52806125555280612b215280613fed52508061090e528061140b5280611b6b5280611fa952806124cf5280613ea45250806121a5528061238e52806129ec5280612a10525080612dc352506157bf6000f3fe608060405234801561001057600080fd5b50600436106101c45760003560e01c806370cf754a116100f9578063cc7e7fa211610097578063ddca3f4311610071578063ddca3f431461083c578063f30583991461085c578063f30dba9314610864578063f637731d146108e6576101c4565b8063cc7e7fa2146107ef578063d0c93a7c14610815578063d21220a714610834576101c4565b8063883bdbfd116100d3578063883bdbfd1461064b578063a34123a714610752578063a38807f21461078c578063c45a0155146107e7576101c4565b806370cf754a146105de5780638206a4d1146105e657806385b667291461060e576101c4565b80633c8a7d8d116101665780634f1eb3d8116101405780634f1eb3d81461050c578063514ea4bf1461055d5780635339c296146105b6578063540d4918146105d6576101c4565b80633c8a7d8d146103c85780634614131914610468578063490e6cbc14610482576101c4565b80631ad8b03b116101a25780631ad8b03b146102be578063252c09d7146102f557806332148f671461034c5780633850c7bd1461036f576101c4565b80630dfe1681146101c9578063128acb08146101ed5780631a6865021461029a575b600080fd5b6101d161090c565b604080516001600160a01b039092168252519081900360200190f35b610281600480360360a081101561020357600080fd5b6001600160a01b0382358116926020810135151592604082013592606083013516919081019060a081016080820135600160201b81111561024357600080fd5b82018360208201111561025557600080fd5b803590602001918460018302840111600160201b8311171561027657600080fd5b509092509050610930565b6040805192835260208301919091528051918290030190f35b6102a26115c3565b604080516001600160801b039092168252519081900360200190f35b6102c66115d2565b60405180836001600160801b03168152602001826001600160801b031681526020019250505060405180910390f35b6103126004803603602081101561030b57600080fd5b50356115ec565b6040805163ffffffff909516855260069390930b60208501526001600160a01b039091168383015215156060830152519081900360800190f35b61036d6004803603602081101561036257600080fd5b503561ffff16611631565b005b61037761172b565b604080516001600160a01b03909816885260029690960b602088015261ffff9485168787015292841660608701529216608085015260ff90911660a0840152151560c0830152519081900360e00190f35b610281600480360360a08110156103de57600080fd5b6001600160a01b03823516916020810135600290810b92604083013590910b916001600160801b036060820135169181019060a081016080820135600160201b81111561042a57600080fd5b82018360208201111561043c57600080fd5b803590602001918460018302840111600160201b8311171561045d57600080fd5b50909250905061177b565b610470611a39565b60408051918252519081900360200190f35b61036d6004803603608081101561049857600080fd5b6001600160a01b038235169160208101359160408201359190810190608081016060820135600160201b8111156104ce57600080fd5b8201836020820111156104e057600080fd5b803590602001918460018302840111600160201b8311171561050157600080fd5b509092509050611a3f565b6102c6600480360360a081101561052257600080fd5b506001600160a01b03813516906020810135600290810b91604081013590910b906001600160801b0360608201358116916080013516611e9a565b61057a6004803603602081101561057357600080fd5b50356120b8565b604080516001600160801b0396871681526020810195909552848101939093529084166060840152909216608082015290519081900360a00190f35b610470600480360360208110156105cc57600080fd5b503560010b6120f5565b6101d1612107565b6102a2612116565b61036d600480360360408110156105fc57600080fd5b5060ff8135811691602001351661213a565b6102c66004803603606081101561062457600080fd5b506001600160a01b03813516906001600160801b036020820135811691604001351661231e565b6106b96004803603602081101561066157600080fd5b810190602081018135600160201b81111561067b57600080fd5b82018360208201111561068d57600080fd5b803590602001918460208302840111600160201b831117156106ae57600080fd5b5090925090506125ed565b604051808060200180602001838103835285818151815260200191508051906020019060200280838360005b838110156106fd5781810151838201526020016106e5565b50505050905001838103825284818151815260200191508051906020019060200280838360005b8381101561073c578181015183820152602001610724565b5050505090500194505050505060405180910390f35b6102816004803603606081101561076857600080fd5b508035600290810b91602081013590910b90604001356001600160801b031661267d565b6107b6600480360360408110156107a257600080fd5b508035600290810b9160200135900b6127f9565b6040805160069490940b84526001600160a01b03909216602084015263ffffffff1682820152519081900360600190f35b6101d16129ea565b61036d6004803603602081101561080557600080fd5b50356001600160a01b0316612a0e565b61081d612afb565b6040805160029290920b8252519081900360200190f35b6101d1612b1f565b610844612b43565b6040805162ffffff9092168252519081900360200190f35b610470612b67565b6108846004803603602081101561087a57600080fd5b503560020b612b6d565b604080516001600160801b039099168952600f9790970b602089015287870195909552606087019390935260069190910b60808601526001600160a01b031660a085015263ffffffff1660c0840152151560e083015251908190036101000190f35b61036d600480360360208110156108fc57600080fd5b50356001600160a01b0316612bd9565b7f000000000000000000000000000000000000000000000000000000000000000081565b60008061093b612db8565b85610972576040805162461bcd60e51b8152602060048201526002602482015261415360f01b604482015290519081900360640190fd5b6040805160e0810182526001546001600160a01b0381168252600160a01b8104600290810b810b900b602083015261ffff600160b81b8204811693830193909352600160c81b810483166060830152600160d81b8104909216608082015260ff600160e81b8304811660a0830152600160f01b909204909116151560c08201819052610a2b576040805162461bcd60e51b81526020600482015260036024820152624c4f4b60e81b604482015290519081900360640190fd5b87610a765780600001516001600160a01b0316866001600160a01b0316118015610a71575073fffd8963efd1fc6a506488495d951d5263988d266001600160a01b038716105b610aa8565b80600001516001600160a01b0316866001600160a01b0316108015610aa857506401000276a36001600160a01b038716115b610adf576040805162461bcd60e51b815260206004820152600360248201526214d41360ea1b604482015290519081900360640190fd5b6001805460ff60f01b191690556040805160c08101909152600090808a610b115760048460a0015160ff16901c610b24565b60108460a0015160ff1681610b2257fe5b065b60ff1681526005546001600160801b03166020820152604001610b45612def565b63ffffffff168152600060208201819052604082018190526060909101819052549091506001600160a01b031615610be2576000805460408084015181516310a537f160e11b815263ffffffff909116600482015290516001600160a01b039092169263214a6fe29260248084019382900301818387803b158015610bc957600080fd5b505af1158015610bdd573d6000803e3d6000fd5b505050505b6000808913905060006040518060e001604052808b81526020016000815260200185600001516001600160a01b03168152602001856020015160020b81526020018c610c3057600354610c34565b6002545b815260200160006001600160801b0316815260200184602001516001600160801b031681525090505b805115801590610c835750886001600160a01b031681604001516001600160a01b031614155b156110cf57610c90615726565b60408201516001600160a01b031681526060820151610cd3906007907f00000000000000000000000000000000000000000000000000000000000000008f612df3565b15156040830152600290810b810b60208301819052620d89e719910b1215610d0457620d89e7196020820152610d23565b6020810151620d89e860029190910b1315610d2357620d89e860208201525b610d308160200151612f35565b6001600160a01b031660608201526040820151610dc1908d610d6a578b6001600160a01b031683606001516001600160a01b031611610d84565b8b6001600160a01b031683606001516001600160a01b0316105b610d92578260600151610d94565b8b5b60c085015185517f0000000000000000000000000000000000000000000000000000000000000000613266565b60c085015260a084015260808301526001600160a01b031660408301528215610e2357610df78160c00151826080015101613458565b825103825260a0810151610e1990610e0e90613458565b60208401519061346e565b6020830152610e5e565b610e308160a00151613458565b825101825260c08101516080820151610e5891610e4d9101613458565b60208401519061348a565b60208301525b835160ff1615610ea4576000846000015160ff168260c0015181610e7e57fe5b60c0840180519290910491829003905260a0840180519091016001600160801b03169052505b60c08201516001600160801b031615610ee357610ed78160c00151600160801b8460c001516001600160801b03166134a0565b60808301805190910190525b80606001516001600160a01b031682604001516001600160a01b0316141561108e57806040015115611065578360a00151610f6d57610f4b846040015160008760200151886040015188602001518a606001516009613550909695949392919063ffffffff16565b6001600160a01b03166080860152600690810b900b6060850152600160a08501525b6000546001600160a01b031615610fef576000805460208301516040805163a498463360e01b815260029290920b60048301528f15156024830152516001600160a01b039092169263a49846339260448084019382900301818387803b158015610fd657600080fd5b505af1158015610fea573d6000803e3d6000fd5b505050505b600061103b82602001518e6110065760025461100c565b84608001515b8f61101b57856080015161101f565b6003545b608089015160608a015160408b015160069594939291906136e2565b90508c15611047576000035b6110558360c001518261379c565b6001600160801b031660c0840152505b8b61107457806020015161107d565b60018160200151035b600290810b900b60608301526110c9565b80600001516001600160a01b031682604001516001600160a01b0316146110c9576110bc8260400151613852565b600290810b900b60608301525b50610c5d565b836020015160020b816060015160020b1461119d5760008061111d86604001518660400151886020015188602001518a606001518b608001516009613b6d909695949392919063ffffffff16565b604085015160608601516001805461ffff60c81b1916600160c81b61ffff958616021761ffff60b81b1916600160b81b95909416949094029290921762ffffff60a01b1916600160a01b62ffffff60029490940b9390931692909202919091176001600160a01b0319166001600160a01b03909116179055506111c29050565b6040810151600180546001600160a01b0319166001600160a01b039092169190911790555b8060c001516001600160801b031683602001516001600160801b0316146112085760c0810151600580546001600160801b0319166001600160801b039092169190911790555b8a1561125857608081015160025560a08101516001600160801b0316156112535760a0810151600480546001600160801b031981166001600160801b03918216909301169190911790555b61129e565b608081015160035560a08101516001600160801b03161561129e5760a0810151600480546001600160801b03808216600160801b92839004821690940116029190911790555b8115158b1515146112b757602081015181518b036112c4565b80600001518a0381602001515b90965094508a156113fd576000851215611306576113067f00000000000000000000000000000000000000000000000000000000000000008d87600003613d08565b6000611310613e56565b9050336001600160a01b0316639f398d9988888c8c6040518563ffffffff1660e01b815260040180858152602001848152602001806020018281038252848482818152602001925080828437600081840152601f19601f82011690508083019250505095505050505050600060405180830381600087803b15801561139457600080fd5b505af11580156113a8573d6000803e3d6000fd5b505050506113b4613e56565b6113be8289613f8f565b11156113f7576040805162461bcd60e51b815260206004820152600360248201526249494160e81b604482015290519081900360640190fd5b50611527565b6000861215611434576114347f00000000000000000000000000000000000000000000000000000000000000008d88600003613d08565b600061143e613f9f565b9050336001600160a01b0316639f398d9988888c8c6040518563ffffffff1660e01b815260040180858152602001848152602001806020018281038252848482818152602001925080828437600081840152601f19601f82011690508083019250505095505050505050600060405180830381600087803b1580156114c257600080fd5b505af11580156114d6573d6000803e3d6000fd5b505050506114e2613f9f565b6114ec8288613f8f565b1115611525576040805162461bcd60e51b815260206004820152600360248201526249494160e81b604482015290519081900360640190fd5b505b60408082015160c083015160608085015184518b8152602081018b90526001600160a01b03948516818701526001600160801b039093169183019190915260020b60808201529151908e169133917fc42079f94a6350d7e6235f29174924f928cc2ac818eb64fed8004e115fbcca679181900360a00190a350506001805460ff60f01b1916600160f01b17905550919890975095505050505050565b6005546001600160801b031681565b6004546001600160801b0380821691600160801b90041682565b60098161ffff81106115fd57600080fd5b015463ffffffff81169150600160201b810460060b90600160581b81046001600160a01b031690600160f81b900460ff1684565b600154600160f01b900460ff16611675576040805162461bcd60e51b81526020600482015260036024820152624c4f4b60e81b604482015290519081900360640190fd5b6001805460ff60f01b1916905561168a612db8565b600154600160d81b900461ffff1660006116a660098385614037565b6001805461ffff808416600160d81b810261ffff60d81b1990931692909217909255919250831614611713576040805161ffff80851682528316602082015281517fac49e518f90a358f652e4400164f05a5d8f7e35e7747279bc3a93dbf584e125a929181900390910190a15b50506001805460ff60f01b1916600160f01b17905550565b6001546001600160a01b03811690600160a01b810460020b9061ffff600160b81b8204811691600160c81b8104821691600160d81b8204169060ff600160e81b8204811691600160f01b90041687565b6001546000908190600160f01b900460ff166117c4576040805162461bcd60e51b81526020600482015260036024820152624c4f4b60e81b604482015290519081900360640190fd5b6001805460ff60f01b191690556001600160801b0385166117e457600080fd5b60008061183260405180608001604052808c6001600160a01b031681526020018b60020b81526020018a60020b81526020016118288a6001600160801b03166140da565b600f0b90526140eb565b9250925050819350809250600080600086111561185457611851613e56565b91505b841561186557611862613f9f565b90505b336001600160a01b031663fa585a1287878b8b6040518563ffffffff1660e01b815260040180858152602001848152602001806020018281038252848482818152602001925080828437600081840152601f19601f82011690508083019250505095505050505050600060405180830381600087803b1580156118e757600080fd5b505af11580156118fb573d6000803e3d6000fd5b50505050600086111561195257611910613e56565b61191a8388613f8f565b1115611952576040805162461bcd60e51b815260206004820152600260248201526104d360f41b604482015290519081900360640190fd5b84156119a257611960613f9f565b61196a8287613f8f565b11156119a2576040805162461bcd60e51b81526020600482015260026024820152614d3160f01b604482015290519081900360640190fd5b8960020b8b60020b8d6001600160a01b03167f7a53080ba414158be7ec69b987b5fb7d07dee101fe85488f0853ae16239d0bde338d8b8b60405180856001600160a01b03168152602001846001600160801b0316815260200183815260200182815260200194505050505060405180910390a450506001805460ff60f01b1916600160f01b17905550919890975095505050505050565b60035481565b600154600160f01b900460ff16611a83576040805162461bcd60e51b81526020600482015260036024820152624c4f4b60e81b604482015290519081900360640190fd5b6001805460ff60f01b19169055611a98612db8565b6005546001600160801b031680611ada576040805162461bcd60e51b81526020600482015260016024820152601360fa1b604482015290519081900360640190fd5b6000611b0f867f000000000000000000000000000000000000000000000000000000000000000062ffffff16620f424061432b565b90506000611b46867f000000000000000000000000000000000000000000000000000000000000000062ffffff16620f424061432b565b90506000611b52613e56565b90506000611b5e613f9f565b90508815611b9157611b917f00000000000000000000000000000000000000000000000000000000000000008b8b613d08565b8715611bc257611bc27f00000000000000000000000000000000000000000000000000000000000000008b8a613d08565b336001600160a01b0316636e34050c85858a8a6040518563ffffffff1660e01b815260040180858152602001848152602001806020018281038252848482818152602001925080828437600081840152601f19601f82011690508083019250505095505050505050600060405180830381600087803b158015611c4457600080fd5b505af1158015611c58573d6000803e3d6000fd5b505050506000611c66613e56565b90506000611c72613f9f565b905081611c7f8588613f8f565b1115611cb7576040805162461bcd60e51b8152602060048201526002602482015261046360f41b604482015290519081900360640190fd5b80611cc28487613f8f565b1115611cfa576040805162461bcd60e51b8152602060048201526002602482015261463160f01b604482015290519081900360640190fd5b8382038382038115611d8957600154600160e81b9004600f1660008115611d2d578160ff168481611d2757fe5b04611d30565b60005b90506001600160801b03811615611d6357600480546001600160801b038082168401166001600160801b03199091161790555b611d7d818503600160801b8d6001600160801b03166134a0565b60028054909101905550505b8015611e1457600154600160e81b900460041c600f1660008115611db9578160ff168381611db357fe5b04611dbc565b60005b90506001600160801b03811615611dee57600480546001600160801b03600160801b8083048216850182160291161790555b611e08818403600160801b8d6001600160801b03166134a0565b60038054909101905550505b8d6001600160a01b0316336001600160a01b03167fbdbdb71d7860376ba52b25a5028beea23581364a40522f6bcfb86bb1f2dca6338f8f86866040518085815260200184815260200183815260200182815260200194505050505060405180910390a350506001805460ff60f01b1916600160f01b179055505050505050505050505050565b6001546000908190600160f01b900460ff16611ee3576040805162461bcd60e51b81526020600482015260036024820152624c4f4b60e81b604482015290519081900360640190fd5b6001805460ff60f01b191690556000611eff6008338989614365565b60038101549091506001600160801b0390811690861611611f205784611f2f565b60038101546001600160801b03165b60038201549093506001600160801b03600160801b909104811690851611611f575783611f6d565b6003810154600160801b90046001600160801b03165b91506001600160801b03831615611fd2576003810180546001600160801b031981166001600160801b03918216869003821617909155611fd2907f0000000000000000000000000000000000000000000000000000000000000000908a908616613d08565b6001600160801b03821615612038576003810180546001600160801b03600160801b808304821686900382160291811691909117909155612038907f0000000000000000000000000000000000000000000000000000000000000000908a908516613d08565b604080516001600160a01b038a1681526001600160801b0380861660208301528416818301529051600288810b92908a900b9133917f70935338e69775456a85ddef226c395fb668b63fa0115f5f20610b388e6ca9c0919081900360600190a4506001805460ff60f01b1916600160f01b17905590969095509350505050565b60086020526000908152604090208054600182015460028301546003909301546001600160801b0392831693919281811691600160801b90041685565b60076020526000908152604090205481565b6000546001600160a01b031681565b7f000000000000000000000000000000000000000000000000000000000000000081565b600154600160f01b900460ff1661217e576040805162461bcd60e51b81526020600482015260036024820152624c4f4b60e81b604482015290519081900360640190fd5b6001805460ff60f01b1916905560408051638da5cb5b60e01b815290516001600160a01b037f00000000000000000000000000000000000000000000000000000000000000001691638da5cb5b916004808301926020929190829003018186803b1580156121eb57600080fd5b505afa1580156121ff573d6000803e3d6000fd5b505050506040513d602081101561221557600080fd5b50516001600160a01b0316331461222b57600080fd5b60ff8216158061224e575060048260ff161015801561224e5750600a8260ff1611155b8015612278575060ff81161580612278575060048160ff16101580156122785750600a8160ff1611155b61228157600080fd5b60018054610ff0600484901b16840160ff908116600160e81b90810260ff60e81b19841617909355919004167f973d8d92bb299f4af6ce49b52a8adb85ae46b9f214c4c4fc06ac77401237b1336010826040805160ff9390920683168252600f600486901c16602083015286831682820152918516606082015290519081900360800190a150506001805460ff60f01b1916600160f01b17905550565b6001546000908190600160f01b900460ff16612367576040805162461bcd60e51b81526020600482015260036024820152624c4f4b60e81b604482015290519081900360640190fd5b6001805460ff60f01b1916905560408051638da5cb5b60e01b815290516001600160a01b037f00000000000000000000000000000000000000000000000000000000000000001691638da5cb5b916004808301926020929190829003018186803b1580156123d457600080fd5b505afa1580156123e8573d6000803e3d6000fd5b505050506040513d60208110156123fe57600080fd5b50516001600160a01b0316331461241457600080fd5b6004546001600160801b0390811690851611612430578361243d565b6004546001600160801b03165b6004549092506001600160801b03600160801b9091048116908416116124635782612477565b600454600160801b90046001600160801b03165b90506001600160801b038216156124f8576004546001600160801b03838116911614156124a657600019909101905b600480546001600160801b031981166001600160801b039182168590038216179091556124f8907f00000000000000000000000000000000000000000000000000000000000000009087908516613d08565b6001600160801b0381161561257e576004546001600160801b03828116600160801b90920416141561252957600019015b600480546001600160801b03600160801b80830482168590038216029181169190911790915561257e907f00000000000000000000000000000000000000000000000000000000000000009087908416613d08565b604080516001600160801b0380851682528316602082015281516001600160a01b0388169233927f596b573906218d3411850b26a6b437d6c4522fdb43d2d2386263f86d50b8b151929081900390910190a36001805460ff60f01b1916600160f01b1790559094909350915050565b6060806125f8612db8565b612672612603612def565b85858080602002602001604051908101604052809392919081815260200183836020028082843760009201919091525050600154600554600995949350600160a01b820460020b925061ffff600160b81b83048116926001600160801b0390921691600160c81b9004166143c9565b915091509250929050565b6001546000908190600160f01b900460ff166126c6576040805162461bcd60e51b81526020600482015260036024820152624c4f4b60e81b604482015290519081900360640190fd5b6001805460ff60f01b1916905560408051608081018252338152600287810b602083015286900b918101919091526000908190819061272290606081016127156001600160801b038a166140da565b600003600f0b90526140eb565b92509250925081600003945080600003935060008511806127435750600084115b15612782576003830180546001600160801b038082168089018216600160801b93849004831689019092169092029091176001600160801b0319161790555b604080516001600160801b0388168152602081018790528082018690529051600289810b92908b900b9133917f0c396cd989a39f4459b5fa1aed6a9a8dcdbc45908acfd67e028cd568da98982c919081900360600190a450506001805460ff60f01b1916600160f01b179055509094909350915050565b6000806000612806612db8565b6128108585614523565b600285810b810b600090815260066020819052604080832088850b90940b8352822060038401549182900b93600160381b83046001600160a01b0316928492600160d81b820463ffffffff16928492909190600160f81b900460ff168061287657600080fd5b6003820154600681900b9850600160381b81046001600160a01b03169650600160d81b810463ffffffff169450600160f81b900460ff16806128b757600080fd5b50506040805160e0810182526001546001600160a01b0381168252600160a01b8104600290810b810b810b6020840181905261ffff600160b81b8404811695850195909552600160c81b830485166060850152600160d81b8304909416608084015260ff600160e81b8304811660a0850152600160f01b909204909116151560c08301529093508e810b91900b12159050612960575093909403965090039350900390506129e3565b8a60020b816020015160020b12156129d457600061297c612def565b60208301516040840151600554606086015193945060009384936129b2936009938893879392916001600160801b031690613550565b9a9003989098039b5050949096039290920396509091030392506129e3915050565b50949093039650039350900390505b9250925092565b7f000000000000000000000000000000000000000000000000000000000000000081565b7f00000000000000000000000000000000000000000000000000000000000000006001600160a01b0316638da5cb5b6040518163ffffffff1660e01b815260040160206040518083038186803b158015612a6757600080fd5b505afa158015612a7b573d6000803e3d6000fd5b505050506040513d6020811015612a9157600080fd5b50516001600160a01b03163314612aa757600080fd5b600080546001600160a01b0383166001600160a01b0319909116811790915560408051918252517f0d32c8be5da985c78332905add7539bd8245f861bf6ce30f0e77395101dd8a869181900360200190a150565b7f000000000000000000000000000000000000000000000000000000000000000081565b7f000000000000000000000000000000000000000000000000000000000000000081565b7f000000000000000000000000000000000000000000000000000000000000000081565b60025481565b60066020819052600091825260409091208054600182015460028301546003909301546001600160801b03831694600160801b909304600f0b93919281900b90600160381b81046001600160a01b031690600160d81b810463ffffffff1690600160f81b900460ff1688565b6001546001600160a01b031615612c1c576040805162461bcd60e51b8152602060048201526002602482015261414960f01b604482015290519081900360640190fd5b6000612c2782613852565b9050600080612c3f612c37612def565b6009906145ec565b6040805160e0810182526001600160a01b038816808252600288810b602080850182905260008587015261ffff8881166060870181905290881660808701819052605560a0880152600160c09097018790528654600160f01b6001600160a01b0319909116871762ffffff60a01b1916600160a01b62ffffff9787900b97909716969096029590951763ffffffff60b81b1916600160c81b9092029190911761ffff60d81b1916600160d81b9091021760ff60e81b1916605560e81b1760ff60f01b191692909217909355835191825281019190915281519395509193507f98636036cb66a9c19a37435efc1e90142190214e8abeb821bdba3f2990dd4c9592918290030190a150505050565b60008082600281900b620d89e71981612d6157fe5b05029050600083600281900b620d89e881612d7857fe5b0502905060008460020b83830360020b81612d8f57fe5b0560010190508062ffffff166001600160801b03801681612dac57fe5b0493505050505b919050565b306001600160a01b037f00000000000000000000000000000000000000000000000000000000000000001614612ded57600080fd5b565b4290565b60008060008460020b8660020b81612e0757fe5b05905060008660020b128015612e2e57508460020b8660020b81612e2757fe5b0760020b15155b15612e3857600019015b8315612ead57600080612e4a83614638565b600182810b810b600090815260208d9052604090205460ff83169190911b80016000190190811680151597509294509092509085612e8f57888360ff16860302612ea2565b88612e998261464a565b840360ff168603025b965050505050612f2b565b600080612ebc83600101614638565b91509150600060018260ff166001901b031990506000818b60008660010b60010b8152602001908152602001600020541690508060001415955085612f0e57888360ff0360ff16866001010102612f24565b8883612f19836146e9565b0360ff168660010101025b9650505050505b5094509492505050565b60008060008360020b12612f4c578260020b612f54565b8260020b6000035b9050620d89e8811115612f92576040805162461bcd60e51b81526020600482015260016024820152601560fa1b604482015290519081900360640190fd5b600060018216612fa657600160801b612fb8565b6ffffcb933bd6fad37aa2d162d1a5940015b70ffffffffffffffffffffffffffffffffff1690506002821615612fec576ffff97272373d413259a46990580e213a0260801c5b600482161561300b576ffff2e50f5f656932ef12357cf3c7fdcc0260801c5b600882161561302a576fffe5caca7e10e4e61c3624eaa0941cd00260801c5b6010821615613049576fffcb9843d60f6159c9db58835c9266440260801c5b6020821615613068576fff973b41fa98c081472e6896dfb254c00260801c5b6040821615613087576fff2ea16466c96a3843ec78b326b528610260801c5b60808216156130a6576ffe5dee046a99a2a811c461f1969c30530260801c5b6101008216156130c6576ffcbe86c7900a88aedcffc83b479aa3a40260801c5b6102008216156130e6576ff987a7253ac413176f2b074cf7815e540260801c5b610400821615613106576ff3392b0822b70005940c7a398e4b70f30260801c5b610800821615613126576fe7159475a2c29b7443b29c7fa6e889d90260801c5b611000821615613146576fd097f3bdfd2022b8845ad8f792aa58250260801c5b612000821615613166576fa9f746462d870fdf8a65dc1f90e061e50260801c5b614000821615613186576f70d869a156d2a1b890bb3df62baf32f70260801c5b6180008216156131a6576f31be135f97d08fd981231505542fcfa60260801c5b620100008216156131c7576f09aa508b5b7a84e1c677de54f3e99bc90260801c5b620200008216156131e7576e5d6af8dedb81196699c329225ee6040260801c5b62040000821615613206576d2216e584f5fa1ea926041bedfe980260801c5b62080000821615613223576b048a170391f7dc42444e8fa20260801c5b60008460020b131561323e57806000198161323a57fe5b0490505b600160201b810615613251576001613254565b60005b60ff16602082901c0192505050919050565b60008080806001600160a01b03808916908a1610158187128015906132eb57600061329f8989620f42400362ffffff16620f42406134a0565b9050826132b8576132b38c8c8c60016147d3565b6132c5565b6132c58b8d8c600161484e565b95508581106132d6578a96506132e5565b6132e28c8b83866148f9565b96505b50613335565b81613302576132fd8b8b8b600061484e565b61330f565b61330f8a8c8b60006147d3565b935083886000031061332357899550613335565b6133328b8a8a60000385614945565b95505b6001600160a01b038a8116908716148215613398578080156133545750815b61336a57613365878d8c600161484e565b61336c565b855b9550808015613379575081155b61338f5761338a878d8c60006147d3565b613391565b845b94506133e2565b8080156133a25750815b6133b8576133b38c888c60016147d3565b6133ba565b855b95508080156133c7575081155b6133dd576133d88c888c600061484e565b6133df565b845b94505b811580156133f257508860000385115b156133fe578860000394505b81801561341d57508a6001600160a01b0316876001600160a01b031614155b1561342c578589039350613449565b613446868962ffffff168a620f42400362ffffff1661432b565b93505b50505095509550955095915050565b6000600160ff1b821061346a57600080fd5b5090565b8082038281131560008312151461348457600080fd5b92915050565b8181018281121560008312151461348457600080fd5b60008080600019858709868602925082811090839003039050806134d657600084116134cb57600080fd5b508290049050613549565b8084116134e257600080fd5b6000848688096000868103871696879004966002600389028118808a02820302808a02820302808a02820302808a02820302808a02820302808a02909103029181900381900460010186841190950394909402919094039290920491909117919091029150505b9392505050565b60008063ffffffff87166135f6576000898661ffff1661ffff811061357157fe5b60408051608081018252919092015463ffffffff808216808452600160201b8304600690810b810b900b6020850152600160581b83046001600160a01b031694840194909452600160f81b90910460ff16151560608301529092508a16146135e2576135df818a8988614991565b90505b8060200151816040015192509250506136d6565b86880360008061360b8c8c858c8c8c8c614a34565b91509150816000015163ffffffff168363ffffffff16141561363d5781602001518260400151945094505050506136d6565b805163ffffffff848116911614156136655780602001518160400151945094505050506136d6565b8151815160208085015190840151918390039286039163ffffffff80841692908516910360060b8161369357fe5b05028460200151018263ffffffff168263ffffffff1686604001518660400151036001600160a01b031602816136c557fe5b048560400151019650965050505050505b97509795505050505050565b600295860b860b60009081526020979097526040909620600181018054909503909455938301805490920390915560038201805463ffffffff600160d81b6001600160a01b03600160381b808504821690960316909402600160381b600160d81b031990921691909117600681810b90960390950b66ffffffffffffff1666ffffffffffffff199095169490941782810485169095039093160263ffffffff60d81b1990931692909217905554600160801b9004600f0b90565b60008082600f0b121561380157826001600160801b03168260000384039150816001600160801b0316106137fc576040805162461bcd60e51b81526020600482015260026024820152614c5360f01b604482015290519081900360640190fd5b613484565b826001600160801b03168284019150816001600160801b03161015613484576040805162461bcd60e51b81526020600482015260026024820152614c4160f01b604482015290519081900360640190fd5b60006401000276a36001600160a01b0383161080159061388e575073fffd8963efd1fc6a506488495d951d5263988d266001600160a01b038316105b6138c3576040805162461bcd60e51b81526020600482015260016024820152602960f91b604482015290519081900360640190fd5b640100000000600160c01b03602083901b166001600160801b03811160071b81811c67ffffffffffffffff811160061b90811c63ffffffff811160051b90811c61ffff811160041b90811c60ff8111600390811b91821c600f811160021b90811c918211600190811b92831c9790881196179094179092171790911717176080811061395757607f810383901c9150613961565b80607f0383901b91505b908002607f81811c60ff83811c9190911c800280831c81831c1c800280841c81841c1c800280851c81851c1c800280861c81861c1c800280871c81871c1c800280881c81881c1c800280891c81891c1c8002808a1c818a1c1c8002808b1c818b1c1c8002808c1c818c1c1c8002808d1c818d1c1c8002808e1c9c81901c9c909c1c80029c8d901c9e9d607f198f0160401b60c09190911c678000000000000000161760c19b909b1c674000000000000000169a909a1760c29990991c672000000000000000169890981760c39790971c671000000000000000169690961760c49590951c670800000000000000169490941760c59390931c670400000000000000169290921760c69190911c670200000000000000161760c79190911c600160381b161760c89190911c6680000000000000161760c99190911c6640000000000000161760ca9190911c6620000000000000161760cb9190911c6610000000000000161760cc9190911c6608000000000000161760cd9190911c66040000000000001617693627a301d71055774c8581026f028f6481ab7f045a5af012a19d003aa9198101608090811d906fdb2df09e81959a81455e260799a0632f8301901d600281810b9083900b14613b5e57886001600160a01b0316613b4282612f35565b6001600160a01b03161115613b575781613b59565b805b613b60565b815b9998505050505050505050565b6000806000898961ffff1661ffff8110613b8357fe5b60408051608081018252919092015463ffffffff808216808452600160201b8304600690810b810b900b6020850152600160581b83046001600160a01b031694840194909452600160f81b90910460ff161515606083015290925089161415613bf257888592509250506136d6565b8461ffff168461ffff16118015613c1357506001850361ffff168961ffff16145b15613c2057839150613c24565b8491505b8161ffff168960010161ffff1681613c3857fe5b069250613c4781898989614991565b8a8461ffff1661ffff8110613c5857fe5b825191018054602084015160408501516060909501511515600160f81b026001600160f81b036001600160a01b03909616600160581b027fff0000000000000000000000000000000000000000ffffffffffffffffffffff60069390930b66ffffffffffffff16600160201b026affffffffffffff000000001963ffffffff90971663ffffffff199095169490941795909516929092171692909217929092161790555097509795505050505050565b604080516001600160a01b038481166024830152604480830185905283518084039091018152606490920183526020820180516001600160e01b031663a9059cbb60e01b1781529251825160009485949389169392918291908083835b60208310613d845780518252601f199092019160209182019101613d65565b6001836020036101000a0380198251168184511680821785525050505050509050019150506000604051808303816000865af19150503d8060008114613de6576040519150601f19603f3d011682016040523d82523d6000602084013e613deb565b606091505b5091509150818015613e19575080511580613e195750808060200190516020811015613e1657600080fd5b50515b613e4f576040805162461bcd60e51b81526020600482015260026024820152612a2360f11b604482015290519081900360640190fd5b5050505050565b604080513060248083019190915282518083039091018152604490910182526020810180516001600160e01b03166370a0823160e01b17815291518151600093849384936001600160a01b037f00000000000000000000000000000000000000000000000000000000000000001693919290918291908083835b60208310613eef5780518252601f199092019160209182019101613ed0565b6001836020036101000a038019825116818451168082178552505050505050905001915050600060405180830381855afa9150503d8060008114613f4f576040519150601f19603f3d011682016040523d82523d6000602084013e613f54565b606091505b5091509150818015613f6857506020815110155b613f7157600080fd5b808060200190516020811015613f8657600080fd5b50519250505090565b8082018281101561348457600080fd5b604080513060248083019190915282518083039091018152604490910182526020810180516001600160e01b03166370a0823160e01b17815291518151600093849384936001600160a01b037f000000000000000000000000000000000000000000000000000000000000000016939192909182919080838360208310613eef5780518252601f199092019160209182019101613ed0565b6000808361ffff1611614075576040805162461bcd60e51b81526020600482015260016024820152604960f81b604482015290519081900360640190fd5b8261ffff168261ffff161161408b575081613549565b825b8261ffff168161ffff1610156140d1576001858261ffff1661ffff81106140b057fe5b01805463ffffffff191663ffffffff9290921691909117905560010161408d565b50909392505050565b80600f81900b8114612db357600080fd5b60008060006140f8612db8565b61410a84602001518560400151614523565b6040805160e0810182526001546001600160a01b0381168252600160a01b8104600290810b810b900b602080840182905261ffff600160b81b8404811685870152600160c81b84048116606080870191909152600160d81b8504909116608086015260ff600160e81b8504811660a0870152600160f01b909404909316151560c0850152885190890151948901519289015193946141ae9491939092909190614c2e565b93508460600151600f0b60001461432357846020015160020b816020015160020b1215614203576141fc6141e58660200151612f35565b6141f28760400151612f35565b8760600151614de3565b9250614323565b846040015160020b816020015160020b12156142f95760055460408201516001600160801b039091169061425590614239612def565b6020850151606086015160808701516009949392918791613b6d565b6001805461ffff60c81b1916600160c81b61ffff938416021761ffff60b81b1916600160b81b9390921692909202179055815160408701516142a5919061429b90612f35565b8860600151614de3565b93506142c36142b78760200151612f35565b83516060890151614e27565b92506142d381876060015161379c565b600580546001600160801b0319166001600160801b039290921691909117905550614323565b6143206143098660200151612f35565b6143168760400151612f35565b8760600151614e27565b91505b509193909250565b60006143388484846134a0565b90506000828061434457fe5b848609111561354957600019811061435b57600080fd5b6001019392505050565b6040805160609490941b6bffffffffffffffffffffffff1916602080860191909152600293840b60e890811b60348701529290930b90911b60378401528051808403601a018152603a90930181528251928201929092206000908152929052902090565b60608060008361ffff1611614409576040805162461bcd60e51b81526020600482015260016024820152604960f81b604482015290519081900360640190fd5b865167ffffffffffffffff8111801561442157600080fd5b5060405190808252806020026020018201604052801561444b578160200160208202803683370190505b509150865167ffffffffffffffff8111801561446657600080fd5b50604051908082528060200260200182016040528015614490578160200160208202803683370190505b50905060005b8751811015614516576144c18a8a8a84815181106144b057fe5b60200260200101518a8a8a8a613550565b8483815181106144cd57fe5b602002602001018484815181106144e057fe5b60200260200101826001600160a01b03166001600160a01b03168152508260060b60060b81525050508080600101915050614496565b5097509795505050505050565b8060020b8260020b12614563576040805162461bcd60e51b8152602060048201526003602482015262544c5560e81b604482015290519081900360640190fd5b620d89e719600283900b12156145a6576040805162461bcd60e51b8152602060048201526003602482015262544c4d60e81b604482015290519081900360640190fd5b620d89e8600282900b13156145e8576040805162461bcd60e51b815260206004820152600360248201526254554d60e81b604482015290519081900360640190fd5b5050565b6040805160808101825263ffffffff9283168082526000602083018190529282019290925260016060909101819052835463ffffffff1916909117909116600160f81b17909155908190565b60020b600881901d9161010090910790565b600080821161465857600080fd5b600160801b821061466b57608091821c91015b68010000000000000000821061468357604091821c91015b600160201b821061469657602091821c91015b6201000082106146a857601091821c91015b61010082106146b957600891821c91015b601082106146c957600491821c91015b600482106146d957600291821c91015b60028210612db357600101919050565b60008082116146f757600080fd5b5060ff6001600160801b0382161561471257607f190161471a565b608082901c91505b67ffffffffffffffff82161561473357603f190161473b565b604082901c91505b63ffffffff82161561475057601f1901614758565b602082901c91505b61ffff82161561476b57600f1901614773565b601082901c91505b60ff821615614785576007190161478d565b600882901c91505b600f82161561479f57600319016147a7565b600482901c91505b60038216156147b957600119016147c1565b600282901c91505b6001821615612db35760001901919050565b6000836001600160a01b0316856001600160a01b031611156147f3579293925b816148205761481b836001600160801b03168686036001600160a01b0316600160601b6134a0565b614843565b614843836001600160801b03168686036001600160a01b0316600160601b61432b565b90505b949350505050565b6000836001600160a01b0316856001600160a01b0316111561486e579293925b600160601b600160e01b03606084901b166001600160a01b03868603811690871661489857600080fd5b836148c857866001600160a01b03166148bb8383896001600160a01b03166134a0565b816148c257fe5b046148ee565b6148ee6148df8383896001600160a01b031661432b565b886001600160a01b0316614e56565b979650505050505050565b600080856001600160a01b03161161491057600080fd5b6000846001600160801b03161161492657600080fd5b816149385761481b8585856001614e61565b6148438585856001614f42565b600080856001600160a01b03161161495c57600080fd5b6000846001600160801b03161161497257600080fd5b816149845761481b8585856000614f42565b6148438585856000614e61565b614999615762565b600085600001518503905060405180608001604052808663ffffffff1681526020018263ffffffff168660020b0288602001510160060b81526020016000856001600160801b0316116149ed5760016149ef565b845b6001600160801b031663ffffffff60801b608085901b1681614a0d57fe5b048860400151016001600160a01b0316815260200160011515815250915050949350505050565b614a3c615762565b614a44615762565b888561ffff1661ffff8110614a5557fe5b60408051608081018252919092015463ffffffff8116808352600160201b8204600690810b810b900b6020840152600160581b82046001600160a01b031693830193909352600160f81b900460ff16151560608201529250614ab990899089615025565b15614af1578663ffffffff16826000015163ffffffff161415614adb576136d6565b81614ae883898988614991565b915091506136d6565b888361ffff168660010161ffff1681614b0657fe5b0661ffff1661ffff8110614b1657fe5b60408051608081018252929091015463ffffffff81168352600160201b8104600690810b810b900b60208401526001600160a01b03600160581b8204169183019190915260ff600160f81b90910416151560608201819052909250614bcb57604080516080810182528a5463ffffffff81168252600160201b8104600690810b810b900b6020830152600160581b81046001600160a01b031692820192909252600160f81b90910460ff161515606082015291505b614bda88836000015189615025565b614c11576040805162461bcd60e51b815260206004820152600360248201526213d31160ea1b604482015290519081900360640190fd5b614c1e89898988876150e6565b9150915097509795505050505050565b6000614c3d6008878787614365565b60025460035491925090600080600f87900b15614d83576000614c5e612def565b6001546005549192506000918291614ca89160099186918591600160a01b810460020b9161ffff600160b81b83048116926001600160801b0390921691600160c81b900416613550565b9092509050614ce260068d8b8d8b8b87898b60007f0000000000000000000000000000000000000000000000000000000000000000615284565b9450614d1960068c8b8d8b8b87898b60017f0000000000000000000000000000000000000000000000000000000000000000615284565b93508415614d4d57614d4d60078d7f000000000000000000000000000000000000000000000000000000000000000061543d565b8315614d7f57614d7f60078c7f000000000000000000000000000000000000000000000000000000000000000061543d565b5050505b600080614d9560068c8c8b8a8a6154a3565b9092509050614da6878a848461554f565b600089600f0b1215614dd4578315614dc357614dc360068c6156e4565b8215614dd457614dd460068b6156e4565b50505050505095945050505050565b60008082600f0b12614e0957614e04614dff858585600161484e565b613458565b614846565b614e1c614dff858585600003600061484e565b600003949350505050565b60008082600f0b12614e4357614e04614dff85858560016147d3565b614e1c614dff85858560000360006147d3565b808204910615150190565b60008115614ed45760006001600160a01b03841115614e9757614e9284600160601b876001600160801b03166134a0565b614eaf565b6001600160801b038516606085901b81614ead57fe5b045b9050614ecc614ec76001600160a01b03881683613f8f565b615710565b915050614846565b60006001600160a01b03841115614f0257614efd84600160601b876001600160801b031661432b565b614f19565b614f19606085901b6001600160801b038716614e56565b905080866001600160a01b031611614f3057600080fd5b6001600160a01b038616039050614846565b600082614f50575083614846565b600160601b600160e01b03606085901b168215614fde576001600160a01b03861684810290858281614f7e57fe5b041415614faf57818101828110614fad57614fa383896001600160a01b03168361432b565b9350505050614846565b505b614fd582614fd0878a6001600160a01b03168681614fc957fe5b0490613f8f565b614e56565b92505050614846565b6001600160a01b03861684810290858281614ff557fe5b0414801561500257508082115b61500b57600080fd5b808203614fa3614ec7846001600160a01b038b168461432b565b60008363ffffffff168363ffffffff161115801561504f57508363ffffffff168263ffffffff1611155b1561506b578163ffffffff168363ffffffff1611159050613549565b60008463ffffffff168463ffffffff1611615092578363ffffffff16600160201b0161509a565b8363ffffffff165b64ffffffffff16905060008563ffffffff168463ffffffff16116150ca578363ffffffff16600160201b016150d2565b8363ffffffff165b64ffffffffff169091111595945050505050565b6150ee615762565b6150f6615762565b60008361ffff168560010161ffff168161510c57fe5b0661ffff169050600060018561ffff16830103905060005b506002818301048961ffff8716828161513957fe5b0661ffff811061514557fe5b60408051608081018252929091015463ffffffff81168352600160201b8104600690810b810b900b60208401526001600160a01b03600160581b8204169183019190915260ff600160f81b909104161515606082018190529095506151af57806001019250615124565b898661ffff1682600101816151c057fe5b0661ffff81106151cc57fe5b60408051608081018252929091015463ffffffff81168352600160201b8104600690810b810b900b60208401526001600160a01b03600160581b8204169183019190915260ff600160f81b90910416151560608201528551909450600090615236908b908b615025565b905080801561524f575061524f8a8a8760000151615025565b1561525a5750615277565b8061526a57600182039250615271565b8160010193505b50615124565b5050509550959350505050565b60028a810b900b600090815260208c90526040812080546001600160801b0316826152af828d61379c565b9050846001600160801b0316816001600160801b031611156152fd576040805162461bcd60e51b81526020600482015260026024820152614c4f60f01b604482015290519081900360640190fd5b6001600160801b0382811615908216158114159450156153a2578c60020b8e60020b1361538a57600183018b9055600283018a9055600383018054600160381b600160d81b031916600160381b6001600160a01b038c16021766ffffffffffffff191666ffffffffffffff60068b900b161763ffffffff60d81b1916600160d81b63ffffffff8a16021790555b6003830180546001600160f81b0316600160f81b1790555b82546001600160801b0319166001600160801b038216178355856153eb5782546153e6906153e190600160801b9004600f90810b810b908f900b61348a565b6140da565b61540c565b825461540c906153e190600160801b9004600f90810b810b908f900b61346e565b8354600f9190910b6001600160801b03908116600160801b0291161790925550909c9b505050505050505050505050565b8060020b8260020b8161544c57fe5b0760020b1561545a57600080fd5b6000806154758360020b8560020b8161546f57fe5b05614638565b600191820b820b60009081526020979097526040909620805460ff9097169190911b90951890945550505050565b600285810b80820b60009081526020899052604080822088850b850b83529082209193849391929184918291908a900b126154e9575050600182015460028301546154fc565b8360010154880391508360020154870390505b6000808b60020b8b60020b121561551e57505060018301546002840154615531565b84600101548a0391508460020154890390505b92909803979097039b96909503949094039850939650505050505050565b6040805160a08101825285546001600160801b0390811682526001870154602083015260028701549282019290925260038601548083166060830152600160801b900490911660808201526000600f85900b6155ee5781516001600160801b03166155e6576040805162461bcd60e51b815260206004820152600260248201526104e560f41b604482015290519081900360640190fd5b5080516155fd565b81516155fa908661379c565b90505b60006156218360200151860384600001516001600160801b0316600160801b6134a0565b905060006156478460400151860385600001516001600160801b0316600160801b6134a0565b905086600f0b60001461566e5787546001600160801b0319166001600160801b0384161788555b60018801869055600288018590556001600160801b03821615158061569c57506000816001600160801b0316115b156156da576003880180546001600160801b031981166001600160801b039182168501821617808216600160801b9182900483168501909216021790555b5050505050505050565b600290810b810b6000908152602092909252604082208281556001810183905590810182905560030155565b806001600160a01b0381168114612db357600080fd5b6040805160e081018252600080825260208201819052918101829052606081018290526080810182905260a0810182905260c081019190915290565b6040805160808101825260008082526020820181905291810182905260608101919091529056fea2646970667358221220089f62cf699656017d7f6f3399d63563bb028db47259d19670c430e23f3c658564736f6c63430007060033a2646970667358221220c244db63f2f2dded29e7ff3eafe57c0b4bc38c0b332fc658f85c6d4fec513b8764736f6c63430007060033",
  "linkReferences": {},
  "deployedLinkReferences": {}
}