{
  "_format": "hh-sol-artifact-1",
  "contractName": "TestSkyXV3Callee",
  "sourceName": "contracts/test/TestSkyXV3Callee.sol",
  "abi": [
    {
      "anonymous": false,
      "inputs": [
        {
          "indexed": false,
          "internalType": "uint256",
          "name": "fee0",
          "type": "uint256"
        },
        {
          "indexed": false,
          "internalType": "uint256",
          "name": "fee1",
          "type": "uint256"
        }
      ],
      "name": "FlashCallback",
      "type": "event"
    },
    {
      "anonymous": false,
      "inputs": [
        {
          "indexed": false,
          "internalType": "uint256",
          "name": "amount0Owed",
          "type": "uint256"
        },
        {
          "indexed": false,
          "internalType": "uint256",
          "name": "amount1Owed",
          "type": "uint256"
        }
      ],
      "name": "MintCallback",
      "type": "event"
    },
    {
      "anonymous": false,
      "inputs": [
        {
          "indexed": false,
          "internalType": "int256",
          "name": "amount0Delta",
          "type": "int256"
        },
        {
          "indexed": false,
          "internalType": "int256",
          "name": "amount1Delta",
          "type": "int256"
        }
      ],
      "name": "SwapCallback",
      "type": "event"
    },
    {
      "inputs": [
        {
          "internalType": "address",
          "name": "pool",
          "type": "address"
        },
        {
          "internalType": "address",
          "name": "recipient",
          "type": "address"
        },
        {
          "internalType": "uint256",
          "name": "amount0",
          "type": "uint256"
        },
        {
          "internalType": "uint256",
          "name": "amount1",
          "type": "uint256"
        },
        {
          "internalType": "uint256",
          "name": "pay0",
          "type": "uint256"
        },
        {
          "internalType": "uint256",
          "name": "pay1",
          "type": "uint256"
        }
      ],
      "name": "flash",
      "outputs": [],
      "stateMutability": "nonpayable",
      "type": "function"
    },
    {
      "inputs": [
        {
          "internalType": "address",
          "name": "pool",
          "type": "address"
        },
        {
          "internalType": "address",
          "name": "recipient",
          "type": "address"
        },
        {
          "internalType": "int24",
          "name": "tickLower",
          "type": "int24"
        },
        {
          "internalType": "int24",
          "name": "tickUpper",
          "type": "int24"
        },
        {
          "internalType": "uint128",
          "name": "amount",
          "type": "uint128"
        }
      ],
      "name": "mint",
      "outputs": [],
      "stateMutability": "nonpayable",
      "type": "function"
    },
    {
      "inputs": [
        {
          "internalType": "uint256",
          "name": "fee0",
          "type": "uint256"
        },
        {
          "internalType": "uint256",
          "name": "fee1",
          "type": "uint256"
        },
        {
          "internalType": "bytes",
          "name": "data",
          "type": "bytes"
        }
      ],
      "name": "skyxV3FlashCallback",
      "outputs": [],
      "stateMutability": "nonpayable",
      "type": "function"
    },
    {
      "inputs": [
        {
          "internalType": "uint256",
          "name": "amount0Owed",
          "type": "uint256"
        },
        {
          "internalType": "uint256",
          "name": "amount1Owed",
          "type": "uint256"
        },
        {
          "internalType": "bytes",
          "name": "data",
          "type": "bytes"
        }
      ],
      "name": "skyxV3MintCallback",
      "outputs": [],
      "stateMutability": "nonpayable",
      "type": "function"
    },
    {
      "inputs": [
        {
          "internalType": "int256",
          "name": "amount0Delta",
          "type": "int256"
        },
        {
          "internalType": "int256",
          "name": "amount1Delta",
          "type": "int256"
        },
        {
          "internalType": "bytes",
          "name": "data",
          "type": "bytes"
        }
      ],
      "name": "skyxV3SwapCallback",
      "outputs": [],
      "stateMutability": "nonpayable",
      "type": "function"
    },
    {
      "inputs": [
        {
          "internalType": "address",
          "name": "pool",
          "type": "address"
        },
        {
          "internalType": "uint256",
          "name": "amount1Out",
          "type": "uint256"
        },
        {
          "internalType": "address",
          "name": "recipient",
          "type": "address"
        },
        {
          "internalType": "uint160",
          "name": "sqrtPriceLimitX96",
          "type": "uint160"
        }
      ],
      "name": "swap0ForExact1",
      "outputs": [],
      "stateMutability": "nonpayable",
      "type": "function"
    },
    {
      "inputs": [
        {
          "internalType": "address",
          "name": "pool",
          "type": "address"
        },
        {
          "internalType": "uint256",
          "name": "amount0Out",
          "type": "uint256"
        },
        {
          "internalType": "address",
          "name": "recipient",
          "type": "address"
        },
        {
          "internalType": "uint160",
          "name": "sqrtPriceLimitX96",
          "type": "uint160"
        }
      ],
      "name": "swap1ForExact0",
      "outputs": [],
      "stateMutability": "nonpayable",
      "type": "function"
    },
    {
      "inputs": [
        {
          "internalType": "address",
          "name": "pool",
          "type": "address"
        },
        {
          "internalType": "uint256",
          "name": "amount0In",
          "type": "uint256"
        },
        {
          "internalType": "address",
          "name": "recipient",
          "type": "address"
        },
        {
          "internalType": "uint160",
          "name": "sqrtPriceLimitX96",
          "type": "uint160"
        }
      ],
      "name": "swapExact0For1",
      "outputs": [],
      "stateMutability": "nonpayable",
      "type": "function"
    },
    {
      "inputs": [
        {
          "internalType": "address",
          "name": "pool",
          "type": "address"
        },
        {
          "internalType": "uint256",
          "name": "amount1In",
          "type": "uint256"
        },
        {
          "internalType": "address",
          "name": "recipient",
          "type": "address"
        },
        {
          "internalType": "uint160",
          "name": "sqrtPriceLimitX96",
          "type": "uint160"
        }
      ],
      "name": "swapExact1For0",
      "outputs": [],
      "stateMutability": "nonpayable",
      "type": "function"
    },
    {
      "inputs": [
        {
          "internalType": "address",
          "name": "pool",
          "type": "address"
        },
        {
          "internalType": "uint160",
          "name": "sqrtPriceX96",
          "type": "uint160"
        },
        {
          "internalType": "address",
          "name": "recipient",
          "type": "address"
        }
      ],
      "name": "swapToHigherSqrtPrice",
      "outputs": [],
      "stateMutability": "nonpayable",
      "type": "function"
    },
    {
      "inputs": [
        {
          "internalType": "address",
          "name": "pool",
          "type": "address"
        },
        {
          "internalType": "uint160",
          "name": "sqrtPriceX96",
          "type": "uint160"
        },
        {
          "internalType": "address",
          "name": "recipient",
          "type": "address"
        }
      ],
      "name": "swapToLowerSqrtPrice",
      "outputs": [],
      "stateMutability": "nonpayable",
      "type": "function"
    }
  ],
  "bytecode": "0x608060405234801561001057600080fd5b506110d3806100206000396000f3fe608060405234801561001057600080fd5b50600436106100a95760003560e01c80639e77b805116100715780639e77b8051461023c5780639f398d9914610274578063bac7bf78146102f0578063e2be91091461032c578063f603482c14610368578063fa585a12146103a4576100a9565b8063034b0f8f146100ae5780632ec20bf9146100f85780636dfc0ddb146101305780636e34050c1461016c5780637b4f5327146101e8575b600080fd5b6100f6600480360360c08110156100c457600080fd5b506001600160a01b03813581169160208101359091169060408101359060608101359060808101359060a00135610420565b005b6100f66004803603606081101561010e57600080fd5b506001600160a01b038135811691602081013582169160409091013516610541565b6100f66004803603608081101561014657600080fd5b506001600160a01b0381358116916020810135916040820135811691606001351661067d565b6100f66004803603606081101561018257600080fd5b8135916020810135918101906060810160408201356401000000008111156101a957600080fd5b8201836020820111156101bb57600080fd5b803590602001918460018302840111640100000000831117156101dd57600080fd5b5090925090506107bb565b6100f6600480360360a08110156101fe57600080fd5b5080356001600160a01b03908116916020810135909116906040810135600290810b91606081013590910b90608001356001600160801b0316610a11565b6100f66004803603606081101561025257600080fd5b506001600160a01b038135811691602081013582169160409091013516610b42565b6100f66004803603606081101561028a57600080fd5b8135916020810135918101906060810160408201356401000000008111156102b157600080fd5b8201836020820111156102c357600080fd5b803590602001918460018302840111640100000000831117156102e557600080fd5b509092509050610bfd565b6100f66004803603608081101561030657600080fd5b506001600160a01b03813581169160208101359160408201358116916060013516610e07565b6100f66004803603608081101561034257600080fd5b506001600160a01b03813581169160208101359160408201358116916060013516610ec6565b6100f66004803603608081101561037e57600080fd5b506001600160a01b03813581169160208101359160408201358116916060013516610ee1565b6100f6600480360360608110156103ba57600080fd5b8135916020810135918101906060810160408201356401000000008111156103e157600080fd5b8201836020820111156103f357600080fd5b8035906020019184600183028401116401000000008311171561041557600080fd5b509092509050610efc565b856001600160a01b031663490e6cbc86868633878760405160200180846001600160a01b0316815260200183815260200182815260200193505050506040516020818303038152906040526040518563ffffffff1660e01b815260040180856001600160a01b0316815260200184815260200183815260200180602001828103825283818151815260200191508051906020019080838360005b838110156104d25781810151838201526020016104ba565b50505050905090810190601f1680156104ff5780820380516001836020036101000a031916815260200191505b5095505050505050600060405180830381600087803b15801561052157600080fd5b505af1158015610535573d6000803e3d6000fd5b50505050505050505050565b826001600160a01b031663128acb088260016001600160ff1b03863360405160200180826001600160a01b031681526020019150506040516020818303038152906040526040518663ffffffff1660e01b815260040180866001600160a01b031681526020018515158152602001848152602001836001600160a01b0316815260200180602001828103825283818151815260200191508051906020019080838360005b838110156105fd5781810151838201526020016105e5565b50505050905090810190601f16801561062a5780820380516001836020036101000a031916815260200191505b5096505050505050506040805180830381600087803b15801561064c57600080fd5b505af1158015610660573d6000803e3d6000fd5b505050506040513d604081101561067657600080fd5b5050505050565b836001600160a01b031663128acb0883600161069887611087565b853360405160200180826001600160a01b031681526020019150506040516020818303038152906040526040518663ffffffff1660e01b815260040180866001600160a01b031681526020018515158152602001848152602001836001600160a01b0316815260200180602001828103825283818151815260200191508051906020019080838360005b8381101561073a578181015183820152602001610722565b50505050905090810190601f1680156107675780820380516001836020036101000a031916815260200191505b5096505050505050506040805180830381600087803b15801561078957600080fd5b505af115801561079d573d6000803e3d6000fd5b505050506040513d60408110156107b357600080fd5b505050505050565b604080518581526020810185905281517f2b0391b4fa408cfe47abd1977d72985695b2e5ebd3175f55be25f2c68c5df21b929181900390910190a160008060008484606081101561080b57600080fd5b506001600160a01b03813516935060208101359250604001359050811561091757336001600160a01b0316630dfe16816040518163ffffffff1660e01b815260040160206040518083038186803b15801561086557600080fd5b505afa158015610879573d6000803e3d6000fd5b505050506040513d602081101561088f57600080fd5b5051604080516323b872dd60e01b81526001600160a01b03868116600483015233602483015260448201869052915191909216916323b872dd9160648083019260209291908290030181600087803b1580156108ea57600080fd5b505af11580156108fe573d6000803e3d6000fd5b505050506040513d602081101561091457600080fd5b50505b8015610a0857336001600160a01b031663d21220a76040518163ffffffff1660e01b815260040160206040518083038186803b15801561095657600080fd5b505afa15801561096a573d6000803e3d6000fd5b505050506040513d602081101561098057600080fd5b5051604080516323b872dd60e01b81526001600160a01b03868116600483015233602483015260448201859052915191909216916323b872dd9160648083019260209291908290030181600087803b1580156109db57600080fd5b505af11580156109ef573d6000803e3d6000fd5b505050506040513d6020811015610a0557600080fd5b50505b50505050505050565b846001600160a01b0316633c8a7d8d858585853360405160200180826001600160a01b031681526020019150506040516020818303038152906040526040518663ffffffff1660e01b815260040180866001600160a01b031681526020018560020b81526020018460020b8152602001836001600160801b0316815260200180602001828103825283818151815260200191508051906020019080838360005b83811015610ac9578181015183820152602001610ab1565b50505050905090810190601f168015610af65780820380516001836020036101000a031916815260200191505b5096505050505050506040805180830381600087803b158015610b1857600080fd5b505af1158015610b2c573d6000803e3d6000fd5b505050506040513d6040811015610a0857600080fd5b826001600160a01b031663128acb088260006001600160ff1b03863360405160200180826001600160a01b031681526020019150506040516020818303038152906040526040518663ffffffff1660e01b815260040180866001600160a01b031681526020018515158152602001848152602001836001600160a01b031681526020018060200182810382528381815181526020019150805190602001908083836000838110156105fd5781810151838201526020016105e5565b600082826020811015610c0f57600080fd5b50356001600160a01b031690506000851315610d1557336001600160a01b0316630dfe16816040518163ffffffff1660e01b815260040160206040518083038186803b158015610c5e57600080fd5b505afa158015610c72573d6000803e3d6000fd5b505050506040513d6020811015610c8857600080fd5b5051604080516323b872dd60e01b81526001600160a01b03848116600483015233602483015260448201899052915191909216916323b872dd9160648083019260209291908290030181600087803b158015610ce357600080fd5b505af1158015610cf7573d6000803e3d6000fd5b505050506040513d6020811015610d0d57600080fd5b506106769050565b60008413610d1f57fe5b336001600160a01b031663d21220a76040518163ffffffff1660e01b815260040160206040518083038186803b158015610d5857600080fd5b505afa158015610d6c573d6000803e3d6000fd5b505050506040513d6020811015610d8257600080fd5b5051604080516323b872dd60e01b81526001600160a01b03848116600483015233602483015260448201889052915191909216916323b872dd9160648083019260209291908290030181600087803b158015610ddd57600080fd5b505af1158015610df1573d6000803e3d6000fd5b505050506040513d6020811015610a0857600080fd5b836001600160a01b031663128acb08836001610e2287611087565b600003853360405160200180826001600160a01b031681526020019150506040516020818303038152906040526040518663ffffffff1660e01b815260040180866001600160a01b031681526020018515158152602001848152602001836001600160a01b0316815260200180602001828103825283818151815260200191508051906020019080838360008381101561073a578181015183820152602001610722565b836001600160a01b031663128acb0883600061069887611087565b836001600160a01b031663128acb08836000610e2287611087565b600082826020811015610f0e57600080fd5b506040805187815260208101879052815192356001600160a01b031693507fa0968be00566083701c9ef671c169d7fb05ac8907de4ca17185de74ccbb694d4929081900390910190a1841561104857336001600160a01b0316630dfe16816040518163ffffffff1660e01b815260040160206040518083038186803b158015610f9657600080fd5b505afa158015610faa573d6000803e3d6000fd5b505050506040513d6020811015610fc057600080fd5b5051604080516323b872dd60e01b81526001600160a01b03848116600483015233602483015260448201899052915191909216916323b872dd9160648083019260209291908290030181600087803b15801561101b57600080fd5b505af115801561102f573d6000803e3d6000fd5b505050506040513d602081101561104557600080fd5b50505b831561067657336001600160a01b031663d21220a76040518163ffffffff1660e01b815260040160206040518083038186803b158015610d5857600080fd5b6000600160ff1b821061109957600080fd5b509056fea2646970667358221220496b8318ab3077945609229959739eda75f07c7d6fe2d7c619c9eb33682238e864736f6c63430007060033",
  "linkReferences": {},
  "deployedLinkReferences": {}
}