{
  "_format": "hh-sol-artifact-1",
  "contractName": "TestSkyXV3ReentrantCallee",
  "sourceName": "contracts/test/TestSkyXV3ReentrantCallee.sol",
  "abi": [
    {
      "inputs": [
        {
          "internalType": "int256",
          "name": "",
          "type": "int256"
        },
        {
          "internalType": "int256",
          "name": "",
          "type": "int256"
        },
        {
          "internalType": "bytes",
          "name": "",
          "type": "bytes"
        }
      ],
      "name": "skyxV3SwapCallback",
      "outputs": [],
      "stateMutability": "nonpayable",
      "type": "function"
    },
    {
      "inputs": [
        {
          "internalType": "address",
          "name": "pool",
          "type": "address"
        }
      ],
      "name": "swapToReenter",
      "outputs": [],
      "stateMutability": "nonpayable",
      "type": "function"
    }
  ],
  "bytecode": "0x608060405234801561001057600080fd5b50610f7a806100206000396000f3fe608060405234801561001057600080fd5b50600436106100365760003560e01c80639f398d991461003b578063c22a2bfe146100b9575b600080fd5b6100b76004803603606081101561005157600080fd5b81359160208101359181019060608101604082013564010000000081111561007857600080fd5b82018360208201111561008a57600080fd5b803590602001918460018302840111640100000000831117156100ac57600080fd5b5090925090506100df565b005b6100b7600480360360208110156100cf57600080fd5b50356001600160a01b0316610d7f565b6040805160008082526020820192839052630251596160e31b835260248201818152604483018290526001606484018190526084840183905260a060a48501908152845160c48601819052339663128acb0896869586949193909260e4850191808383895b8381101561015c578181015183820152602001610144565b50505050905090810190601f1680156101895780820380516001836020036101000a031916815260200191505b5096505050505050506040805180830381600087803b1580156101ab57600080fd5b505af19250505080156101d757506040513d60408110156101cb57600080fd5b50805160209091015160015b61033a576101e3610e9e565b806101ee575061032b565b604051806040016040528060038152602001624c4f4b60e81b8152506040516020018080602001828103825283818151815260200191508051906020019080838360005b8381101561024a578181015183820152602001610232565b50505050905090810190601f1680156102775780820380516001836020036101000a031916815260200191505b509250505060405160208183030381529060405280519060200120816040516020018080602001828103825283818151815260200191508051906020019080838360005b838110156102d35781810151838201526020016102bb565b50505050905090810190601f1680156103005780820380516001836020036101000a031916815260200191505b5092505050604051602081830303815290604052805190602001201461032557600080fd5b50610335565b3d6000803e3d6000fd5b61033d565b50505b6040805160008082526020820192839052633c8a7d8d60e01b83526024820181815260448301829052606483018290526084830182905260a060a48401908152835160c485018190523395633c8a7d8d9585948594859492939192909160e4850191808383895b838110156103bc5781810151838201526020016103a4565b50505050905090810190601f1680156103e95780820380516001836020036101000a031916815260200191505b5096505050505050506040805180830381600087803b15801561040b57600080fd5b505af192505050801561043757506040513d604081101561042b57600080fd5b50805160209091015160015b61058b57610443610e9e565b8061044e575061032b565b604051806040016040528060038152602001624c4f4b60e81b8152506040516020018080602001828103825283818151815260200191508051906020019080838360005b838110156104aa578181015183820152602001610492565b50505050905090810190601f1680156104d75780820380516001836020036101000a031916815260200191505b509250505060405160208183030381529060405280519060200120816040516020018080602001828103825283818151815260200191508051906020019080838360005b8381101561053357818101518382015260200161051b565b50505050905090810190601f1680156105605780820380516001836020036101000a031916815260200191505b5092505050604051602081830303815290604052805190602001201461058557600080fd5b5061058e565b50505b604080516309e3d67b60e31b81526000600482018190526024820181905260448201819052606482018190526084820181905282513393634f1eb3d89360a480820194929392918390030190829087803b1580156105eb57600080fd5b505af192505050801561061757506040513d604081101561060b57600080fd5b50805160209091015160015b61076b57610623610e9e565b8061062e575061032b565b604051806040016040528060038152602001624c4f4b60e81b8152506040516020018080602001828103825283818151815260200191508051906020019080838360005b8381101561068a578181015183820152602001610672565b50505050905090810190601f1680156106b75780820380516001836020036101000a031916815260200191505b509250505060405160208183030381529060405280519060200120816040516020018080602001828103825283818151815260200191508051906020019080838360005b838110156107135781810151838201526020016106fb565b50505050905090810190601f1680156107405780820380516001836020036101000a031916815260200191505b5092505050604051602081830303815290604052805190602001201461076557600080fd5b5061076e565b50505b336001600160a01b031663a34123a760008060006040518463ffffffff1660e01b81526004018084815260200183815260200182815260200193505050506040805180830381600087803b1580156107c557600080fd5b505af19250505080156107f157506040513d60408110156107e557600080fd5b50805160209091015160015b610945576107fd610e9e565b80610808575061032b565b604051806040016040528060038152602001624c4f4b60e81b8152506040516020018080602001828103825283818151815260200191508051906020019080838360005b8381101561086457818101518382015260200161084c565b50505050905090810190601f1680156108915780820380516001836020036101000a031916815260200191505b509250505060405160208183030381529060405280519060200120816040516020018080602001828103825283818151815260200191508051906020019080838360005b838110156108ed5781810151838201526020016108d5565b50505050905090810190601f16801561091a5780820380516001836020036101000a031916815260200191505b5092505050604051602081830303815290604052805190602001201461093f57600080fd5b50610948565b50505b60408051600080825260208201928390526312439b2f60e21b8352602482018181526044830182905260648301829052608060848401908152835160a48501819052339563490e6cbc95859485949193909260c4850191808383895b838110156109bc5781810151838201526020016109a4565b50505050905090810190601f1680156109e95780820380516001836020036101000a031916815260200191505b5095505050505050600060405180830381600087803b158015610a0b57600080fd5b505af1925050508015610a1c575060015b610b6c57610a28610e9e565b80610a33575061032b565b604051806040016040528060038152602001624c4f4b60e81b8152506040516020018080602001828103825283818151815260200191508051906020019080838360005b83811015610a8f578181015183820152602001610a77565b50505050905090810190601f168015610abc5780820380516001836020036101000a031916815260200191505b509250505060405160208183030381529060405280519060200120816040516020018080602001828103825283818151815260200191508051906020019080838360005b83811015610b18578181015183820152602001610b00565b50505050905090810190601f168015610b455780820380516001836020036101000a031916815260200191505b50925050506040516020818303038152906040528051906020012014610b6a57600080fd5b505b604080516385b6672960e01b81526000600482018190526024820181905260448201819052825133936385b6672993606480820194929392918390030190829087803b158015610bbb57600080fd5b505af1925050508015610be757506040513d6040811015610bdb57600080fd5b50805160209091015160015b610d3b57610bf3610e9e565b80610bfe575061032b565b604051806040016040528060038152602001624c4f4b60e81b8152506040516020018080602001828103825283818151815260200191508051906020019080838360005b83811015610c5a578181015183820152602001610c42565b50505050905090810190601f168015610c875780820380516001836020036101000a031916815260200191505b509250505060405160208183030381529060405280519060200120816040516020018080602001828103825283818151815260200191508051906020019080838360005b83811015610ce3578181015183820152602001610ccb565b50505050905090810190601f168015610d105780820380516001836020036101000a031916815260200191505b50925050506040516020818303038152906040528051906020012014610d3557600080fd5b50610d3e565b50505b6040805162461bcd60e51b81526020600482015260116024820152702ab730b13632903a37903932b2b73a32b960791b604482015290519081900360640190fd5b6040805160008082526020820192839052630251596160e31b8352602482018181526044830182905260016064840181905273fffd8963efd1fc6a506488495d951d5263988d256084850181905260a060a48601908152855160c487018190526001600160a01b0389169763128acb0897879690939092909160e48501918083838b5b83811015610e1a578181015183820152602001610e02565b50505050905090810190601f168015610e475780820380516001836020036101000a031916815260200191505b5096505050505050506040805180830381600087803b158015610e6957600080fd5b505af1158015610e7d573d6000803e3d6000fd5b505050506040513d6040811015610e9357600080fd5b505050565b60e01c90565b600060443d1015610eae57610f41565b600481823e6308c379a0610ec28251610e98565b14610ecc57610f41565b6040513d600319016004823e80513d67ffffffffffffffff8160248401118184111715610efc5750505050610f41565b82840192508251915080821115610f165750505050610f41565b503d83016020828401011115610f2e57505050610f41565b601f01601f191681016020016040529150505b9056fea2646970667358221220330d9cb8c88a6f00eeed362c8f6c6b1af3c6cd1e55a7b5bc1d237243e18adbd864736f6c63430007060033",
  "linkReferences": {},
  "deployedLinkReferences": {}
}