{
  "_format": "hh-sol-artifact-1",
  "contractName": "MasterChefV3",
  "sourceName": "contracts/MasterChefV3.sol",
  "abi": [
    {
      "inputs": [
        {
          "internalType": "address",
          "name": "_WETH",
          "type": "address"
        },
        {
          "internalType": "contract SkyXToken",
          "name": "_skyx",
          "type": "address"
        },
        {
          "internalType": "contract INonfungiblePositionManager",
          "name": "_nftManager",
          "type": "address"
        },
        {
          "internalType": "uint256",
          "name": "_skyxPerSecond",
          "type": "uint256"
        },
        {
          "internalType": "uint256",
          "name": "_burnPercent",
          "type": "uint256"
        }
      ],
      "stateMutability": "nonpayable",
      "type": "constructor"
    },
    {
      "anonymous": false,
      "inputs": [
        {
          "indexed": false,
          "internalType": "uint256",
          "name": "allocPoint",
          "type": "uint256"
        },
        {
          "indexed": false,
          "internalType": "address",
          "name": "v3Pool",
          "type": "address"
        },
        {
          "indexed": false,
          "internalType": "address",
          "name": "lmPool",
          "type": "address"
        }
      ],
      "name": "AddPool",
      "type": "event"
    },
    {
      "anonymous": false,
      "inputs": [
        {
          "indexed": true,
          "internalType": "address",
          "name": "from",
          "type": "address"
        },
        {
          "indexed": true,
          "internalType": "uint256",
          "name": "pid",
          "type": "uint256"
        },
        {
          "indexed": true,
          "internalType": "uint256",
          "name": "tokenId",
          "type": "uint256"
        },
        {
          "indexed": false,
          "internalType": "int24",
          "name": "tickLower",
          "type": "int24"
        },
        {
          "indexed": false,
          "internalType": "int24",
          "name": "tickUpper",
          "type": "int24"
        },
        {
          "indexed": false,
          "internalType": "uint128",
          "name": "liquidity",
          "type": "uint128"
        }
      ],
      "name": "Deposit",
      "type": "event"
    },
    {
      "anonymous": false,
      "inputs": [
        {
          "indexed": true,
          "internalType": "address",
          "name": "sender",
          "type": "address"
        },
        {
          "indexed": false,
          "internalType": "address",
          "name": "to",
          "type": "address"
        },
        {
          "indexed": true,
          "internalType": "uint256",
          "name": "pid",
          "type": "uint256"
        },
        {
          "indexed": true,
          "internalType": "uint256",
          "name": "tokenId",
          "type": "uint256"
        },
        {
          "indexed": false,
          "internalType": "uint256",
          "name": "skyxReward",
          "type": "uint256"
        }
      ],
      "name": "Harvest",
      "type": "event"
    },
    {
      "anonymous": false,
      "inputs": [
        {
          "indexed": true,
          "internalType": "address",
          "name": "previousOwner",
          "type": "address"
        },
        {
          "indexed": true,
          "internalType": "address",
          "name": "newOwner",
          "type": "address"
        }
      ],
      "name": "OwnershipTransferred",
      "type": "event"
    },
    {
      "anonymous": false,
      "inputs": [
        {
          "indexed": false,
          "internalType": "uint256",
          "name": "skyxPerSecond",
          "type": "uint256"
        }
      ],
      "name": "SetEmissionRate",
      "type": "event"
    },
    {
      "anonymous": false,
      "inputs": [
        {
          "indexed": false,
          "internalType": "address",
          "name": "lmPoolDeployer",
          "type": "address"
        }
      ],
      "name": "SetLmPoolDeployer",
      "type": "event"
    },
    {
      "anonymous": false,
      "inputs": [
        {
          "indexed": false,
          "internalType": "address",
          "name": "nftManager",
          "type": "address"
        }
      ],
      "name": "SetNftManager",
      "type": "event"
    },
    {
      "anonymous": false,
      "inputs": [
        {
          "indexed": false,
          "internalType": "uint256",
          "name": "burnPercent",
          "type": "uint256"
        }
      ],
      "name": "SetPercent",
      "type": "event"
    },
    {
      "anonymous": false,
      "inputs": [
        {
          "indexed": true,
          "internalType": "uint256",
          "name": "pid",
          "type": "uint256"
        },
        {
          "indexed": false,
          "internalType": "uint256",
          "name": "allocPoint",
          "type": "uint256"
        }
      ],
      "name": "SetPool",
      "type": "event"
    },
    {
      "anonymous": false,
      "inputs": [
        {
          "indexed": true,
          "internalType": "address",
          "name": "from",
          "type": "address"
        },
        {
          "indexed": true,
          "internalType": "uint256",
          "name": "pid",
          "type": "uint256"
        },
        {
          "indexed": true,
          "internalType": "uint256",
          "name": "tokenId",
          "type": "uint256"
        },
        {
          "indexed": false,
          "internalType": "int24",
          "name": "tickLower",
          "type": "int24"
        },
        {
          "indexed": false,
          "internalType": "int24",
          "name": "tickUpper",
          "type": "int24"
        },
        {
          "indexed": false,
          "internalType": "int128",
          "name": "liquidity",
          "type": "int128"
        }
      ],
      "name": "UpdateLiquidity",
      "type": "event"
    },
    {
      "anonymous": false,
      "inputs": [
        {
          "indexed": true,
          "internalType": "address",
          "name": "sender",
          "type": "address"
        },
        {
          "indexed": false,
          "internalType": "address",
          "name": "to",
          "type": "address"
        },
        {
          "indexed": true,
          "internalType": "uint256",
          "name": "pid",
          "type": "uint256"
        },
        {
          "indexed": true,
          "internalType": "uint256",
          "name": "tokenId",
          "type": "uint256"
        }
      ],
      "name": "Withdraw",
      "type": "event"
    },
    {
      "inputs": [],
      "name": "WETH",
      "outputs": [
        {
          "internalType": "address",
          "name": "",
          "type": "address"
        }
      ],
      "stateMutability": "view",
      "type": "function"
    },
    {
      "inputs": [
        {
          "internalType": "uint256",
          "name": "_allocPoint",
          "type": "uint256"
        },
        {
          "internalType": "contract ISkyXV3Pool",
          "name": "_v3Pool",
          "type": "address"
        },
        {
          "internalType": "bool",
          "name": "_withUpdate",
          "type": "bool"
        }
      ],
      "name": "addPool",
      "outputs": [],
      "stateMutability": "nonpayable",
      "type": "function"
    },
    {
      "inputs": [
        {
          "internalType": "address",
          "name": "owner",
          "type": "address"
        }
      ],
      "name": "balanceOf",
      "outputs": [
        {
          "internalType": "uint256",
          "name": "",
          "type": "uint256"
        }
      ],
      "stateMutability": "view",
      "type": "function"
    },
    {
      "inputs": [
        {
          "internalType": "uint256",
          "name": "_tokenId",
          "type": "uint256"
        }
      ],
      "name": "burn",
      "outputs": [],
      "stateMutability": "nonpayable",
      "type": "function"
    },
    {
      "inputs": [],
      "name": "burnAddress",
      "outputs": [
        {
          "internalType": "address",
          "name": "",
          "type": "address"
        }
      ],
      "stateMutability": "view",
      "type": "function"
    },
    {
      "inputs": [],
      "name": "burnPercent",
      "outputs": [
        {
          "internalType": "uint256",
          "name": "",
          "type": "uint256"
        }
      ],
      "stateMutability": "view",
      "type": "function"
    },
    {
      "inputs": [
        {
          "components": [
            {
              "internalType": "uint256",
              "name": "tokenId",
              "type": "uint256"
            },
            {
              "internalType": "address",
              "name": "recipient",
              "type": "address"
            },
            {
              "internalType": "uint128",
              "name": "amount0Max",
              "type": "uint128"
            },
            {
              "internalType": "uint128",
              "name": "amount1Max",
              "type": "uint128"
            }
          ],
          "internalType": "struct INonfungiblePositionManager.CollectParams",
          "name": "_params",
          "type": "tuple"
        }
      ],
      "name": "collect",
      "outputs": [
        {
          "internalType": "uint256",
          "name": "amount0",
          "type": "uint256"
        },
        {
          "internalType": "uint256",
          "name": "amount1",
          "type": "uint256"
        }
      ],
      "stateMutability": "nonpayable",
      "type": "function"
    },
    {
      "inputs": [
        {
          "components": [
            {
              "internalType": "uint256",
              "name": "tokenId",
              "type": "uint256"
            },
            {
              "internalType": "uint128",
              "name": "liquidity",
              "type": "uint128"
            },
            {
              "internalType": "uint256",
              "name": "amount0Min",
              "type": "uint256"
            },
            {
              "internalType": "uint256",
              "name": "amount1Min",
              "type": "uint256"
            },
            {
              "internalType": "uint256",
              "name": "deadline",
              "type": "uint256"
            }
          ],
          "internalType": "struct INonfungiblePositionManager.DecreaseLiquidityParams",
          "name": "_params",
          "type": "tuple"
        }
      ],
      "name": "decreaseLiquidity",
      "outputs": [
        {
          "internalType": "uint256",
          "name": "amount0",
          "type": "uint256"
        },
        {
          "internalType": "uint256",
          "name": "amount1",
          "type": "uint256"
        }
      ],
      "stateMutability": "payable",
      "type": "function"
    },
    {
      "inputs": [
        {
          "internalType": "uint256",
          "name": "_tokenId",
          "type": "uint256"
        },
        {
          "internalType": "address",
          "name": "_to",
          "type": "address"
        }
      ],
      "name": "harvest",
      "outputs": [
        {
          "internalType": "uint256",
          "name": "reward",
          "type": "uint256"
        }
      ],
      "stateMutability": "nonpayable",
      "type": "function"
    },
    {
      "inputs": [
        {
          "components": [
            {
              "internalType": "uint256",
              "name": "tokenId",
              "type": "uint256"
            },
            {
              "internalType": "uint256",
              "name": "amount0Desired",
              "type": "uint256"
            },
            {
              "internalType": "uint256",
              "name": "amount1Desired",
              "type": "uint256"
            },
            {
              "internalType": "uint256",
              "name": "amount0Min",
              "type": "uint256"
            },
            {
              "internalType": "uint256",
              "name": "amount1Min",
              "type": "uint256"
            },
            {
              "internalType": "uint256",
              "name": "deadline",
              "type": "uint256"
            }
          ],
          "internalType": "struct INonfungiblePositionManager.IncreaseLiquidityParams",
          "name": "_params",
          "type": "tuple"
        }
      ],
      "name": "increaseLiquidity",
      "outputs": [
        {
          "internalType": "uint128",
          "name": "liquidity",
          "type": "uint128"
        },
        {
          "internalType": "uint256",
          "name": "amount0",
          "type": "uint256"
        },
        {
          "internalType": "uint256",
          "name": "amount1",
          "type": "uint256"
        }
      ],
      "stateMutability": "payable",
      "type": "function"
    },
    {
      "inputs": [],
      "name": "lmPoolDeployer",
      "outputs": [
        {
          "internalType": "contract ISkyXV3LmPoolDeployer",
          "name": "",
          "type": "address"
        }
      ],
      "stateMutability": "view",
      "type": "function"
    },
    {
      "inputs": [],
      "name": "name",
      "outputs": [
        {
          "internalType": "string",
          "name": "",
          "type": "string"
        }
      ],
      "stateMutability": "view",
      "type": "function"
    },
    {
      "inputs": [],
      "name": "nftManager",
      "outputs": [
        {
          "internalType": "contract INonfungiblePositionManager",
          "name": "",
          "type": "address"
        }
      ],
      "stateMutability": "view",
      "type": "function"
    },
    {
      "inputs": [
        {
          "internalType": "address",
          "name": "",
          "type": "address"
        },
        {
          "internalType": "address",
          "name": "_from",
          "type": "address"
        },
        {
          "internalType": "uint256",
          "name": "_tokenId",
          "type": "uint256"
        },
        {
          "internalType": "bytes",
          "name": "",
          "type": "bytes"
        }
      ],
      "name": "onERC721Received",
      "outputs": [
        {
          "internalType": "bytes4",
          "name": "",
          "type": "bytes4"
        }
      ],
      "stateMutability": "nonpayable",
      "type": "function"
    },
    {
      "inputs": [],
      "name": "owner",
      "outputs": [
        {
          "internalType": "address",
          "name": "",
          "type": "address"
        }
      ],
      "stateMutability": "view",
      "type": "function"
    },
    {
      "inputs": [
        {
          "internalType": "uint256",
          "name": "_tokenId",
          "type": "uint256"
        }
      ],
      "name": "pendingSkyx",
      "outputs": [
        {
          "internalType": "uint256",
          "name": "reward",
          "type": "uint256"
        }
      ],
      "stateMutability": "view",
      "type": "function"
    },
    {
      "inputs": [
        {
          "internalType": "uint256",
          "name": "",
          "type": "uint256"
        }
      ],
      "name": "poolInfo",
      "outputs": [
        {
          "internalType": "contract ISkyXV3Pool",
          "name": "v3Pool",
          "type": "address"
        },
        {
          "internalType": "address",
          "name": "token0",
          "type": "address"
        },
        {
          "internalType": "address",
          "name": "token1",
          "type": "address"
        },
        {
          "internalType": "uint24",
          "name": "fee",
          "type": "uint24"
        },
        {
          "internalType": "uint256",
          "name": "allocPoint",
          "type": "uint256"
        },
        {
          "internalType": "uint128",
          "name": "liquidity",
          "type": "uint128"
        },
        {
          "internalType": "uint256",
          "name": "lastTime",
          "type": "uint256"
        }
      ],
      "stateMutability": "view",
      "type": "function"
    },
    {
      "inputs": [],
      "name": "poolLength",
      "outputs": [
        {
          "internalType": "uint256",
          "name": "",
          "type": "uint256"
        }
      ],
      "stateMutability": "view",
      "type": "function"
    },
    {
      "inputs": [],
      "name": "renounceOwnership",
      "outputs": [],
      "stateMutability": "nonpayable",
      "type": "function"
    },
    {
      "inputs": [
        {
          "internalType": "uint256",
          "name": "_skyxPerSecond",
          "type": "uint256"
        }
      ],
      "name": "setEmissionRate",
      "outputs": [],
      "stateMutability": "nonpayable",
      "type": "function"
    },
    {
      "inputs": [
        {
          "internalType": "contract ISkyXV3LmPoolDeployer",
          "name": "_lmPoolDeployer",
          "type": "address"
        }
      ],
      "name": "setLmPoolDeployer",
      "outputs": [],
      "stateMutability": "nonpayable",
      "type": "function"
    },
    {
      "inputs": [
        {
          "internalType": "contract INonfungiblePositionManager",
          "name": "_nftManager",
          "type": "address"
        }
      ],
      "name": "setNftManager",
      "outputs": [],
      "stateMutability": "nonpayable",
      "type": "function"
    },
    {
      "inputs": [
        {
          "internalType": "uint256",
          "name": "_burnPercent",
          "type": "uint256"
        }
      ],
      "name": "setPercent",
      "outputs": [],
      "stateMutability": "nonpayable",
      "type": "function"
    },
    {
      "inputs": [
        {
          "internalType": "uint256",
          "name": "_pid",
          "type": "uint256"
        },
        {
          "internalType": "uint256",
          "name": "_allocPoint",
          "type": "uint256"
        },
        {
          "internalType": "bool",
          "name": "_withUpdate",
          "type": "bool"
        }
      ],
      "name": "setPool",
      "outputs": [],
      "stateMutability": "nonpayable",
      "type": "function"
    },
    {
      "inputs": [],
      "name": "skyx",
      "outputs": [
        {
          "internalType": "contract SkyXToken",
          "name": "",
          "type": "address"
        }
      ],
      "stateMutability": "view",
      "type": "function"
    },
    {
      "inputs": [],
      "name": "skyxPerSecond",
      "outputs": [
        {
          "internalType": "uint256",
          "name": "",
          "type": "uint256"
        }
      ],
      "stateMutability": "view",
      "type": "function"
    },
    {
      "inputs": [
        {
          "internalType": "address",
          "name": "_v3Pool",
          "type": "address"
        }
      ],
      "name": "skyxPerSecondByPool",
      "outputs": [
        {
          "internalType": "uint256",
          "name": "",
          "type": "uint256"
        }
      ],
      "stateMutability": "view",
      "type": "function"
    },
    {
      "inputs": [
        {
          "internalType": "address",
          "name": "owner",
          "type": "address"
        },
        {
          "internalType": "uint256",
          "name": "index",
          "type": "uint256"
        }
      ],
      "name": "tokenOfOwnerByIndex",
      "outputs": [
        {
          "internalType": "uint256",
          "name": "",
          "type": "uint256"
        }
      ],
      "stateMutability": "view",
      "type": "function"
    },
    {
      "inputs": [],
      "name": "totalAllocPoint",
      "outputs": [
        {
          "internalType": "uint256",
          "name": "",
          "type": "uint256"
        }
      ],
      "stateMutability": "view",
      "type": "function"
    },
    {
      "inputs": [
        {
          "internalType": "address",
          "name": "newOwner",
          "type": "address"
        }
      ],
      "name": "transferOwnership",
      "outputs": [],
      "stateMutability": "nonpayable",
      "type": "function"
    },
    {
      "inputs": [],
      "name": "updateAllPools",
      "outputs": [],
      "stateMutability": "nonpayable",
      "type": "function"
    },
    {
      "inputs": [
        {
          "internalType": "uint256",
          "name": "_tokenId",
          "type": "uint256"
        }
      ],
      "name": "updateLiquidity",
      "outputs": [],
      "stateMutability": "nonpayable",
      "type": "function"
    },
    {
      "inputs": [
        {
          "internalType": "uint256[]",
          "name": "_pids",
          "type": "uint256[]"
        }
      ],
      "name": "updateMultiplePools",
      "outputs": [],
      "stateMutability": "nonpayable",
      "type": "function"
    },
    {
      "inputs": [
        {
          "internalType": "uint256",
          "name": "_pid",
          "type": "uint256"
        }
      ],
      "name": "updatePool",
      "outputs": [],
      "stateMutability": "nonpayable",
      "type": "function"
    },
    {
      "inputs": [
        {
          "internalType": "uint256",
          "name": "",
          "type": "uint256"
        }
      ],
      "name": "userPositionInfos",
      "outputs": [
        {
          "internalType": "address",
          "name": "user",
          "type": "address"
        },
        {
          "internalType": "uint256",
          "name": "pid",
          "type": "uint256"
        },
        {
          "internalType": "int24",
          "name": "tickLower",
          "type": "int24"
        },
        {
          "internalType": "int24",
          "name": "tickUpper",
          "type": "int24"
        },
        {
          "internalType": "uint128",
          "name": "liquidity",
          "type": "uint128"
        },
        {
          "internalType": "uint256",
          "name": "rewardGrowthInside",
          "type": "uint256"
        },
        {
          "internalType": "uint256",
          "name": "reward",
          "type": "uint256"
        }
      ],
      "stateMutability": "view",
      "type": "function"
    },
    {
      "inputs": [
        {
          "internalType": "address",
          "name": "",
          "type": "address"
        }
      ],
      "name": "v3PoolAddressPid",
      "outputs": [
        {
          "internalType": "uint256",
          "name": "",
          "type": "uint256"
        }
      ],
      "stateMutability": "view",
      "type": "function"
    },
    {
      "inputs": [
        {
          "internalType": "uint256",
          "name": "_tokenId",
          "type": "uint256"
        },
        {
          "internalType": "address",
          "name": "_to",
          "type": "address"
        }
      ],
      "name": "withdraw",
      "outputs": [
        {
          "internalType": "uint256",
          "name": "reward",
          "type": "uint256"
        }
      ],
      "stateMutability": "nonpayable",
      "type": "function"
    }
  ],
  "bytecode": "0x60c06040523480156200001157600080fd5b50604051620048da380380620048da8339810160408190526200003491620000dc565b600062000040620000d8565b600080546001600160a01b0319166001600160a01b0383169081178255604051929350917f8be0079c531659141344cd1fd0a4f28419497f9722a3daafe3b4186f6b6457e0908290a35060018055606094851b6001600160601b03199081166080529390941b90921660a052600580546001600160a01b0319166001600160a01b039290921691909117905560085560075562000159565b3390565b600080600080600060a08688031215620000f4578081fd5b8551620001018162000140565b6020870151909550620001148162000140565b6040870151909450620001278162000140565b6060870151608090970151959894975095949392505050565b6001600160a01b03811681146200015657600080fd5b50565b60805160601c60a05160601c61472a620001b060003980611a725280611aff52806124e45280612e455280613374528061340952508061128952806112c852806125ea52806131d15280613247525061472a6000f3fe6080604052600436106102195760003560e01c80635e492ac8116101235780638da5cb5b116100ab578063be8eeb9a1161006f578063be8eeb9a14610602578063ced0911214610622578063e88b91ea14610642578063f2fde38b14610657578063fc6f78651461067757610219565b80638da5cb5b1461058357806396c8c4b514610598578063a1bdb15e146105b8578063ad5c4648146105d8578063b9ec7d74146105ed57610219565b80637154b8b5116100f25780637154b8b5146104ee578063766795cf1461050e5780637abceffd1461052e57806380d6a7921461054e5780638bd365c81461056e57610219565b80635e492ac81461048257806370a08231146104a457806370d5ae05146104c4578063715018a6146104d957610219565b806317caf6f1116101a657806334d0b27c1161017557806334d0b27c146103cd5780633b1acf74146103ed57806342966c681461042057806346ca6bea1461044257806351eb05a61461046257610219565b806317caf6f11461035657806318fccc761461036b578063219f5d171461038b5780632f745c59146103ad57610219565b8063081e3eda116101ed578063081e3eda146102ab5780630c49ccbe146102c057806310ac567e146102e1578063150b7a02146102f65780631526fe271461032357610219565b8062f714ce1461021e57806303807ee51461025457806306fdde03146102695780630743384d1461028b575b600080fd5b34801561022a57600080fd5b5061023e610239366004613f06565b610697565b60405161024b91906145a7565b60405180910390f35b34801561026057600080fd5b5061023e610a2d565b34801561027557600080fd5b5061027e610a33565b60405161024b9190614211565b34801561029757600080fd5b5061023e6102a6366004613b87565b610a59565b3480156102b757600080fd5b5061023e610a6b565b6102d36102ce366004613da1565b610a71565b60405161024b9291906145cf565b3480156102ed57600080fd5b5061023e610bb5565b34801561030257600080fd5b50610316610311366004613bc6565b610bbb565b60405161024b9190614153565b34801561032f57600080fd5b5061034361033e366004613ed6565b61100f565b60405161024b9796959493929190614168565b34801561036257600080fd5b5061023e611067565b34801561037757600080fd5b5061023e610386366004613f06565b61106d565b61039e610399366004613e13565b611157565b60405161024b93929190614586565b3480156103b957600080fd5b5061023e6103c8366004613c60565b611419565b3480156103d957600080fd5b5061023e6103e8366004613b87565b61149b565b3480156103f957600080fd5b5061040d610408366004613ed6565b6114de565b60405161024b979695949392919061410a565b34801561042c57600080fd5b5061044061043b366004613ed6565b611537565b005b34801561044e57600080fd5b5061044061045d366004613f95565b6116db565b34801561046e57600080fd5b5061044061047d366004613ed6565b6118c6565b34801561048e57600080fd5b50610497611b3b565b60405161024b919061409f565b3480156104b057600080fd5b5061023e6104bf366004613b87565b611b4a565b3480156104d057600080fd5b50610497611bad565b3480156104e557600080fd5b50610440611bb3565b3480156104fa57600080fd5b50610440610509366004613ed6565b611c5f565b34801561051a57600080fd5b50610440610529366004613b87565b611d31565b34801561053a57600080fd5b50610440610549366004613f35565b611de6565b34801561055a57600080fd5b50610440610569366004613b87565b61242d565b34801561057a57600080fd5b506104976124e2565b34801561058f57600080fd5b50610497612506565b3480156105a457600080fd5b506104406105b3366004613c8b565b612515565b3480156105c457600080fd5b506104406105d3366004613ed6565b612549565b3480156105e457600080fd5b506104976125e8565b3480156105f957600080fd5b5061044061260c565b34801561060e57600080fd5b5061023e61061d366004613ed6565b61262a565b34801561062e57600080fd5b5061044061063d366004613ed6565b6128ad565b34801561064e57600080fd5b50610497612954565b34801561066357600080fd5b50610440610672366004613b87565b612963565b34801561068357600080fd5b506102d3610692366004613d2c565b612a65565b6000600260015414156106df576040805162461bcd60e51b815260206004820152601f602482015260008051602061463d833981519152604482015290519081900360640190fd5b60026001556001600160a01b038216301480159061070557506001600160a01b03821615155b61072a5760405162461bcd60e51b81526004016107219061433e565b60405180910390fd5b6000838152600b6020526040902080546001600160a01b031633146107615760405162461bcd60e51b81526004016107219061444a565b61076e81600101546118c6565b610779818585612c0e565b60018201546000818152600a6020908152604080832080548251630a81a92360e31b81529251969850949590946001600160a01b03169263540d49189260048082019391829003018186803b1580156107d157600080fd5b505afa1580156107e5573d6000803e3d6000fd5b505050506040513d601f19601f820116820180604052508101906108099190613baa565b90506001600160a01b038116156108f457600280850154604051638910faf160e01b81526001600160801b03600160301b830416600003926001600160a01b03851692638910faf19261086e9282810b9263010000009004900b9086906004016141ca565b600060405180830381600087803b15801561088857600080fd5b505af115801561089c573d6000803e3d6000fd5b5050506002808701546040518b9350879233927f98c48f89eedc4cb6109b202e2f70aa5a17560d81dede50f3dc3467e4ad3f4e9e926108ea9282810b9263010000009004900b9088906141ca565b60405180910390a4505b600280850154600480850180546001600160801b03600160301b9094048416818516039093166001600160801b0319909316929092179091556000898152600b6020526040812080546001600160a01b03191681556001810182905592830180546001600160b01b0319169055600383018190559101556109753388612eca565b600554604051632142170760e11b81526001600160a01b03909116906342842e0e906109a99030908a908c906004016140cd565b600060405180830381600087803b1580156109c357600080fd5b505af11580156109d7573d6000803e3d6000fd5b505050508683336001600160a01b03167ff341246adaac6f497bc2a656f546ab9e182111d630394f0c57c710a59a2cb56789604051610a16919061409f565b60405180910390a450506001805550909392505050565b60075481565b6040518060400160405280600a81526020016926b0b9ba32b921b432b360b11b81525081565b600d6020526000908152604090205481565b60095481565b60008060026001541415610aba576040805162461bcd60e51b815260206004820152601f602482015260008051602061463d833981519152604482015290519081900360640190fd5b600260015582516000908152600b6020526040902080546001600160a01b03163314610af85760405162461bcd60e51b81526004016107219061444a565b610b0581600101546118c6565b600554604051630624e65f60e11b81526001600160a01b0390911690630c49ccbe90610b359087906004016144ff565b6040805180830381600087803b158015610b4e57600080fd5b505af1158015610b62573d6000803e3d6000fd5b505050506040513d601f19601f82011682018060405250810190610b869190613f72565b85519194509250610b9a9082906000612c0e565b50610ba9818560000151612ef6565b50600180559092909150565b60085481565b600060026001541415610c03576040805162461bcd60e51b815260206004820152601f602482015260008051602061463d833981519152604482015290519081900360640190fd5b60026001556005546001600160a01b03163314610c325760405162461bcd60e51b815260040161072190614264565b610c3a613b07565b60055460405163133f757160e31b81526001600160a01b03909116906399fbab8890610c6a9088906004016145a7565b6101806040518083038186803b158015610c8357600080fd5b505afa158015610c97573d6000803e3d6000fd5b505050506040513d601f19601f82011682018060405250810190610cbb9190613fc0565b505050506001600160801b031660a08901819052600291820b820b60808a015291810b900b606088015262ffffff9190911660408701526001600160a01b0391821660208701529116845215159150610d2890505760405162461bcd60e51b815260040161072190614375565b80516001600160a01b039081166000908152600c602090815260408083208286015190941683529281528282208385015162ffffff1683529052205480610d815760405162461bcd60e51b8152600401610721906143ac565b6000818152600a60209081526040808320815160e08101835281546001600160a01b039081168083526001840154821683870152600284015491821683860152600160a01b90910462ffffff166060830152600383015460808301526004808401546001600160801b031660a084015260059093015460c08301528351630a81a92360e31b81529351919594909363540d4918938181019391829003018186803b158015610e2e57600080fd5b505afa158015610e42573d6000803e3d6000fd5b505050506040513d601f19601f82011682018060405250810190610e669190613baa565b90506001600160a01b038116610e8e5760405162461bcd60e51b81526004016107219061441a565b6000888152600b602052604090206060850151600280830180546080890151830b62ffffff90811663010000000265ffffff000000199590940b1662ffffff19909116179290921617905580546001600160a01b038b166001600160a01b031990911617815560018101849055610f04846118c6565b610f0e818a612ef6565b60608501516080860151604051633816bae960e11b81526001600160a01b0385169263702d75d292610f42926004016141b6565b60206040518083038186803b158015610f5a57600080fd5b505afa158015610f6e573d6000803e3d6000fd5b505050506040513d601f19601f82011682018060405250810190610f929190613eee565b6003820155610fa18a8a6131a4565b88848b6001600160a01b03167f57ad437d10d93a14c3ba13cd1f658d23af3a61b9863d909c4bd73559a3ab80d0886060015189608001518a60a00151604051610fec939291906141eb565b60405180910390a450506001805550630a85bd0160e11b98975050505050505050565b600a602052600090815260409020805460018201546002830154600384015460048501546005909501546001600160a01b039485169593851694831693600160a01b90930462ffffff16926001600160801b03169087565b600e5481565b6000600260015414156110b5576040805162461bcd60e51b815260206004820152601f602482015260008051602061463d833981519152604482015290519081900360640190fd5b60026001556000838152600b6020526040902080546001600160a01b031633146110f15760405162461bcd60e51b81526004016107219061444a565b6002810154600160301b90046001600160801b0316151580611117575060008160040154115b6111335760405162461bcd60e51b815260040161072190614375565b61114081600101546118c6565b61114b818585612c0e565b60018055949350505050565b6000806000600260015414156111a2576040805162461bcd60e51b815260206004820152601f602482015260008051602061463d833981519152604482015290519081900360640190fd5b6002600190815584516000908152600b60205260409020908101546111d95760405162461bcd60e51b8152600401610721906143ac565b6111e681600101546118c6565b6001818101546000908152600a6020908152604091829020825160e08101845281546001600160a01b039081168252948201548516818401819052600283015495861694820194909452600160a01b90940462ffffff1660608501526003810154608085015260048101546001600160801b031660a08501526005015460c084015287015161127591906131cf565b611287816040015187604001516131cf565b7f00000000000000000000000000000000000000000000000000000000000000006001600160a01b031681602001516001600160a01b0316148061130057507f00000000000000000000000000000000000000000000000000000000000000006001600160a01b031681604001516001600160a01b0316145b80611309575034155b6113255760405162461bcd60e51b815260040161072190614307565b60055460405163219f5d1760e01b81526001600160a01b039091169063219f5d17903490611357908a90600401614542565b6060604051808303818588803b15801561137057600080fd5b505af1158015611384573d6000803e3d6000fd5b50505050506040513d601f19601f820116820180604052508101906113a99190613e86565b602089015160408a015193985091965094508590039084900381156113d6576113d6836020015183613245565b80156113ea576113ea836040015182613245565b6113fa8489600001516000612c0e565b50611409848960000151612ef6565b5050600180555092949193509150565b6001600160a01b038216600090815260026020526040812054821061146f5760405162461bcd60e51b81526004018080602001828103825260258152602001806146836025913960400191505060405180910390fd5b506001600160a01b03821660009081526003602090815260408083208484529091529020545b92915050565b600e546001600160a01b0382166000908152600d60209081526040808320548352600a90915281206003015460085491929102816114d557fe5b0490505b919050565b600b6020526000908152604090208054600182015460028084015460038501546004909501546001600160a01b0390941694929381830b936301000000830490930b92600160301b9092046001600160801b0316919087565b6002600154141561157d576040805162461bcd60e51b815260206004820152601f602482015260008051602061463d833981519152604482015290519081900360640190fd5b60026001556000818152600b6020526040902080546001600160a01b031633146115b95760405162461bcd60e51b81526004016107219061444a565b6115c681600101546118c6565b6000828152600b6020526040812080546001600160a01b0319168155600181018290556002810180546001600160b01b0319169055600381018290556004018190556116159082908490612c0e565b506116208183612ef6565b61162a3383612eca565b600554604051630852cd8d60e31b81526001600160a01b03909116906342966c689061165a9085906004016145a7565b600060405180830381600087803b15801561167457600080fd5b505af1158015611688573d6000803e3d6000fd5b50505050818160010154336001600160a01b03167ff341246adaac6f497bc2a656f546ab9e182111d630394f0c57c710a59a2cb567336040516116cb919061409f565b60405180910390a4505060018055565b6116e3613308565b6001600160a01b03166116f4612506565b6001600160a01b03161461173d576040805162461bcd60e51b815260206004820181905260248201526000805160206146a8833981519152604482015290519081900360640190fd5b6000838152600a6020908152604080832080548251630a81a92360e31b815292519194936001600160a01b039091169263540d49189260048083019392829003018186803b15801561178e57600080fd5b505afa1580156117a2573d6000803e3d6000fd5b505050506040513d601f19601f820116820180604052508101906117c69190613baa565b90506001600160a01b03811615611836576040516310a537f160e11b81526001600160a01b0382169063214a6fe2906118039042906004016145dd565b600060405180830381600087803b15801561181d57600080fd5b505af1158015611831573d6000803e3d6000fd5b505050505b82156118445761184461260c565b6000858152600a6020526040902060030154600e5461186e9190611868908761330c565b9061331c565b600e556000858152600a6020526040908190206003018590555185907fc0cfd54d2de2b55f1e6e108d3ec53ff0a1abe6055401d32c61e9433b747ef9f8906118b79087906145a7565b60405180910390a25050505050565b80158015906118d757506009548111155b6118f35760405162461bcd60e51b815260040161072190614479565b6000818152600a602052604090206005810154428110611914575050611b38565b600382015461192a575042600590910155611b38565b815460408051630a81a92360e31b815290516000926001600160a01b03169163540d4918916004808301926020929190829003018186803b15801561196e57600080fd5b505afa158015611982573d6000803e3d6000fd5b505050506040513d601f19601f820116820180604052508101906119a69190613baa565b90506001600160a01b03811615611a16576040516310a537f160e11b81526001600160a01b0382169063214a6fe2906119e39042906004016145dd565b600060405180830381600087803b1580156119fd57600080fd5b505af1158015611a11573d6000803e3d6000fd5b505050505b6000611a22428461331c565b90506000611a55600e54611a4f8760030154611a496008548761332c90919063ffffffff16565b9061332c565b90613350565b9050600080611a638361336d565b90925090506001600160a01b037f0000000000000000000000000000000000000000000000000000000000000000166340c10f1930611aa2858561330c565b6040518363ffffffff1660e01b8152600401611abf9291906140f1565b600060405180830381600087803b158015611ad957600080fd5b505af1158015611aed573d6000803e3d6000fd5b505050506000821115611b2757611b277f000000000000000000000000000000000000000000000000000000000000000061dead846134ef565b428760050181905550505050505050505b50565b6006546001600160a01b031681565b60006001600160a01b038216611b915760405162461bcd60e51b815260040180806020018281038252602d8152602001806146c8602d913960400191505060405180910390fd5b506001600160a01b031660009081526002602052604090205490565b61dead81565b611bbb613308565b6001600160a01b0316611bcc612506565b6001600160a01b031614611c15576040805162461bcd60e51b815260206004820181905260248201526000805160206146a8833981519152604482015290519081900360640190fd5b600080546040516001600160a01b03909116907f8be0079c531659141344cd1fd0a4f28419497f9722a3daafe3b4186f6b6457e0908390a3600080546001600160a01b0319169055565b611c67613308565b6001600160a01b0316611c78612506565b6001600160a01b031614611cc1576040805162461bcd60e51b815260206004820181905260248201526000805160206146a8833981519152604482015290519081900360640190fd5b68056bc75e2d631000008110611ce95760405162461bcd60e51b8152600401610721906142d2565b611cf161260c565b60078190556040517f0287d8f6090bf7e554411e129912f733c4ed418a656b56c01cb61c54890109d690611d269083906145a7565b60405180910390a150565b611d39613308565b6001600160a01b0316611d4a612506565b6001600160a01b031614611d93576040805162461bcd60e51b815260206004820181905260248201526000805160206146a8833981519152604482015290519081900360640190fd5b611d9b61260c565b600580546001600160a01b0319166001600160a01b0383161790556040517f8ec0cd8efc6916f92ded13f283bfc5e74e7e07930a968e7ac8682d46cd9220ca90611d2690839061409f565b611dee613308565b6001600160a01b0316611dff612506565b6001600160a01b031614611e48576040805162461bcd60e51b815260206004820181905260248201526000805160206146a8833981519152604482015290519081900360640190fd5b8015611e5657611e5661260c565b600654604051634c96a38960e01b81526000916001600160a01b031690634c96a38990611e8790869060040161409f565b602060405180830381600087803b158015611ea157600080fd5b505af1158015611eb5573d6000803e3d6000fd5b505050506040513d601f19601f82011682018060405250810190611ed99190613baa565b600e54909150611ee9908561330c565b600e819055506000836001600160a01b0316630dfe16816040518163ffffffff1660e01b815260040160206040518083038186803b158015611f2a57600080fd5b505afa158015611f3e573d6000803e3d6000fd5b505050506040513d601f19601f82011682018060405250810190611f629190613baa565b90506000846001600160a01b031663d21220a76040518163ffffffff1660e01b815260040160206040518083038186803b158015611f9f57600080fd5b505afa158015611fb3573d6000803e3d6000fd5b505050506040513d601f19601f82011682018060405250810190611fd79190613baa565b90506000856001600160a01b031663ddca3f436040518163ffffffff1660e01b815260040160206040518083038186803b15801561201457600080fd5b505afa158015612028573d6000803e3d6000fd5b505050506040513d601f19601f8201168201806040525081019061204c9190613ebc565b6001600160a01b038085166000908152600c60209081526040808320938716835292815282822062ffffff85168352905220549091501561209f5760405162461bcd60e51b8152600401610721906143e3565b600554604051636eb1769f60e11b81526001600160a01b038086169263dd62ed3e926120d192309216906004016140b3565b60206040518083038186803b1580156120e957600080fd5b505afa1580156120fd573d6000803e3d6000fd5b505050506040513d601f19601f820116820180604052508101906121219190613eee565b61213f5760055461213f9084906001600160a01b031660001961363d565b600554604051636eb1769f60e11b81526001600160a01b038085169263dd62ed3e9261217192309216906004016140b3565b60206040518083038186803b15801561218957600080fd5b505afa15801561219d573d6000803e3d6000fd5b505050506040513d601f19601f820116820180604052508101906121c19190613eee565b6121df576005546121df9083906001600160a01b031660001961363d565b6009600081548092919060010191905055506040518060e00160405280876001600160a01b03168152602001846001600160a01b03168152602001836001600160a01b031681526020018262ffffff16815260200188815260200160006001600160801b0316815260200142815250600a6000600954815260200190815260200160002060008201518160000160006101000a8154816001600160a01b0302191690836001600160a01b0316021790555060208201518160010160006101000a8154816001600160a01b0302191690836001600160a01b0316021790555060408201518160020160006101000a8154816001600160a01b0302191690836001600160a01b0316021790555060608201518160020160146101000a81548162ffffff021916908362ffffff1602179055506080820151816003015560a08201518160040160006101000a8154816001600160801b0302191690836001600160801b0316021790555060c08201518160050155905050600954600c6000856001600160a01b03166001600160a01b031681526020019081526020016000206000846001600160a01b03166001600160a01b0316815260200190815260200160002060008362ffffff1662ffffff16815260200190815260200160002081905550600954600d6000886001600160a01b03166001600160a01b03168152602001908152602001600020819055507f1a43e4121268b689e564f3ca4b347e76e6a182afbd688a8ae883a62d0939642887878660405161241c939291906145b0565b60405180910390a150505050505050565b612435613308565b6001600160a01b0316612446612506565b6001600160a01b03161461248f576040805162461bcd60e51b815260206004820181905260248201526000805160206146a8833981519152604482015290519081900360640190fd5b61249761260c565b600680546001600160a01b0319166001600160a01b0383161790556040517f4c912280cda47bed324de14f601d3f125a98254671772f3f1f491e50fa0ca40790611d2690839061409f565b7f000000000000000000000000000000000000000000000000000000000000000081565b6000546001600160a01b031690565b60005b81518110156125455761253d82828151811061253057fe5b60200260200101516118c6565b600101612518565b5050565b612551613308565b6001600160a01b0316612562612506565b6001600160a01b0316146125ab576040805162461bcd60e51b815260206004820181905260248201526000805160206146a8833981519152604482015290519081900360640190fd5b6125b361260c565b60088190556040517fbe8bc964758fb9bdff90ab397e91e1c2edd1bac024f40bfa335a5a57170d987c90611d269083906145a7565b7f000000000000000000000000000000000000000000000000000000000000000081565b60095460015b81811161254557612622816118c6565b600101612612565b6000818152600b60209081526040808320815160e08101835281546001600160a01b03168152600182015493810184905260028083015480820b820b820b9483019490945263010000008404810b810b900b6060820152600160301b9092046001600160801b03166080830152600381015460a08301526004015460c082015290156128a7576020818101516000908152600a82526040808220815160e08101835281546001600160a01b039081168083526001840154821683880152600284015491821683860152600160a01b90910462ffffff166060830152600383015460808301526004808401546001600160801b031660a084015260059093015460c08301528351630a81a92360e31b815293519195909363540d4918938181019391829003018186803b15801561275f57600080fd5b505afa158015612773573d6000803e3d6000fd5b505050506040513d601f19601f820116820180604052508101906127979190613baa565b90506001600160a01b0381161561289b5760408084015160608501519151633816bae960e11b81526000926001600160a01b0385169263702d75d2926127e092906004016141b6565b60206040518083038186803b1580156127f857600080fd5b505afa15801561280c573d6000803e3d6000fd5b505050506040513d601f19601f820116820180604052508101906128309190613eee565b90508360a0015181118015612862575083608001516001600160801b03168460a0015182036000198161285f57fe5b04115b1561288d57600160801b84608001516001600160801b03168560a001518303028161288957fe5b0494505b6128968561336d565b955050505b8260c001518401935050505b50919050565b600260015414156128f3576040805162461bcd60e51b815260206004820152601f602482015260008051602061463d833981519152604482015290519081900360640190fd5b600260019081556000828152600b60205260409020908101546129285760405162461bcd60e51b8152600401610721906143ac565b61293581600101546118c6565b61294181836000612c0e565b5061294c8183612ef6565b505060018055565b6005546001600160a01b031681565b61296b613308565b6001600160a01b031661297c612506565b6001600160a01b0316146129c5576040805162461bcd60e51b815260206004820181905260248201526000805160206146a8833981519152604482015290519081900360640190fd5b6001600160a01b038116612a0a5760405162461bcd60e51b815260040180806020018281038252602681526020018061465d6026913960400191505060405180910390fd5b600080546040516001600160a01b03808516939216917f8be0079c531659141344cd1fd0a4f28419497f9722a3daafe3b4186f6b6457e091a3600080546001600160a01b0319166001600160a01b0392909216919091179055565b60008060026001541415612aae576040805162461bcd60e51b815260206004820152601f602482015260008051602061463d833981519152604482015290519081900360640190fd5b6002600181815584516000908152600b6020908152604091829020825160e08101845281546001600160a01b031680825294820154928101929092528085015480860b860b860b9383019390935263010000008304850b850b90940b6060820152600160301b9091046001600160801b03166080820152600383015460a082015260049092015460c08301523314612b585760405162461bcd60e51b81526004016107219061444a565b612b6581602001516118c6565b60208401516001600160a01b0316612b7e573060208501525b60055460405163fc6f786560e01b81526001600160a01b039091169063fc6f786590612bae9087906004016144bc565b6040805180830381600087803b158015612bc757600080fd5b505af1158015612bdb573d6000803e3d6000fd5b505050506040513d601f19601f82011682018060405250810190612bff9190613f72565b60018055909590945092505050565b6001838101546000908152600a60209081526040808320815160e08101835281546001600160a01b0390811680835296830154811682860152600283015490811682850152600160a01b900462ffffff166060820152600382015460808201526004808301546001600160801b031660a083015260059092015460c08201528251630a81a92360e31b81529251949590948694919363540d491893818101939291829003018186803b158015612cc357600080fd5b505afa158015612cd7573d6000803e3d6000fd5b505050506040513d601f19601f82011682018060405250810190612cfb9190613baa565b90506001600160a01b03811615612e1a57600280870154604051633816bae960e11b81526000926001600160a01b0385169263702d75d292612d4d9282810b9263010000009004900b906004016141b6565b60206040518083038186803b158015612d6557600080fd5b505afa158015612d79573d6000803e3d6000fd5b505050506040513d601f19601f82011682018060405250810190612d9d9190613eee565b9050866003015481118015612dd8575060028701546003880154600160301b9091046001600160801b031690820360001981612dd557fe5b04115b15612e055760028701546003880154600160801b91600160301b90046001600160801b0316908303020493505b612e0e8461336d565b60038901929092555092505b600486015492909201918215612ec1576001600160a01b03841615612eb95760006004870155612e6b7f000000000000000000000000000000000000000000000000000000000000000085856134ef565b848660010154336001600160a01b03167fd25759d838eb0a46600f8f327cce144e61d7caefbef27010fe31e2aab091704f8787604051612eac9291906140f1565b60405180910390a4612ec1565b600486018390555b50509392505050565b612ed48282613783565b506001600160a01b031660009081526002602052604090208054600019019055565b60055460405163133f757160e31b8152600091829182916001600160a01b0316906399fbab8890612f2b9087906004016145a7565b6101806040518083038186803b158015612f4457600080fd5b505afa158015612f58573d6000803e3d6000fd5b505050506040513d601f19601f82011682018060405250810190612f7c9190613fc0565b5050505097509750975050505050506000600a60008760010154815260200190815260200160002090506000826001600160801b03168760020160069054906101000a90046001600160801b03166001600160801b03161461303d57506002860180546004830180546001600160801b03198116600160301b938490046001600160801b039081169281168390038801811691909117909255835475ffffffffffffffffffffffffffffffff00000000000019169186169092021790915582035b80600f0b60001461319b57815460408051630a81a92360e31b815290516000926001600160a01b03169163540d4918916004808301926020929190829003018186803b15801561308c57600080fd5b505afa1580156130a0573d6000803e3d6000fd5b505050506040513d601f19601f820116820180604052508101906130c49190613baa565b90506001600160a01b0381166130ec5760405162461bcd60e51b81526004016107219061441a565b604051638910faf160e01b81526001600160a01b03821690638910faf19061311c908990899087906004016141ca565b600060405180830381600087803b15801561313657600080fd5b505af115801561314a573d6000803e3d6000fd5b50505050868860010154336001600160a01b03167f98c48f89eedc4cb6109b202e2f70aa5a17560d81dede50f3dc3467e4ad3f4e9e898987604051613191939291906141ca565b60405180910390a4505b50505050505050565b6131ae828261387f565b506001600160a01b0316600090815260026020526040902080546001019055565b7f00000000000000000000000000000000000000000000000000000000000000006001600160a01b0316826001600160a01b03161480156132105750600034115b15613239578034146132345760405162461bcd60e51b81526004016107219061429b565b612545565b612545823330846138bb565b7f00000000000000000000000000000000000000000000000000000000000000006001600160a01b0316826001600160a01b03161480156132865750600034115b156132fd57600560009054906101000a90046001600160a01b03166001600160a01b03166312210e8a6040518163ffffffff1660e01b8152600401600060405180830381600087803b1580156132db57600080fd5b505af11580156132ef573d6000803e3d6000fd5b505050506132343347613a13565b6125458233836134ef565b3390565b8082018281101561149557600080fd5b8082038281111561149557600080fd5b60008215806133475750508181028183828161334457fe5b04145b61149557600080fd5b60008161335c57600080fd5b81838161336557fe5b049392505050565b60008060007f00000000000000000000000000000000000000000000000000000000000000006001600160a01b03166318160ddd6040518163ffffffff1660e01b815260040160206040518083038186803b1580156133cb57600080fd5b505afa1580156133df573d6000803e3d6000fd5b505050506040513d601f19601f820116820180604052508101906134039190613eee565b905060007f00000000000000000000000000000000000000000000000000000000000000006001600160a01b031663d5abeb016040518163ffffffff1660e01b815260040160206040518083038186803b15801561346057600080fd5b505afa158015613474573d6000803e3d6000fd5b505050506040513d601f19601f820116820180604052508101906134989190613eee565b90506134a4828661330c565b8110156134b8576134b5818361331c565b94505b6134da68056bc75e2d63100000611a4f6007548861332c90919063ffffffff16565b93506134e6858561331c565b92505050915091565b604080516001600160a01b038481166024830152604480830185905283518084039091018152606490920183526020820180516001600160e01b031663a9059cbb60e01b1781529251825160009485949389169392918291908083835b6020831061356b5780518252601f19909201916020918201910161354c565b6001836020036101000a0380198251168184511680821785525050505050509050019150506000604051808303816000865af19150503d80600081146135cd576040519150601f19603f3d011682016040523d82523d6000602084013e6135d2565b606091505b509150915081801561360057508051158061360057508080602001905160208110156135fd57600080fd5b50515b613636576040805162461bcd60e51b81526020600482015260026024820152612a2360f11b604482015290519081900360640190fd5b5050505050565b604080516001600160a01b038481166024830152604480830185905283518084039091018152606490920183526020820180516001600160e01b031663095ea7b360e01b1781529251825160009485949389169392918291908083835b602083106136b95780518252601f19909201916020918201910161369a565b6001836020036101000a0380198251168184511680821785525050505050509050019150506000604051808303816000865af19150503d806000811461371b576040519150601f19603f3d011682016040523d82523d6000602084013e613720565b606091505b509150915081801561374e57508051158061374e575080806020019051602081101561374b57600080fd5b50515b613636576040805162461bcd60e51b81526020600482015260016024820152604160f81b604482015290519081900360640190fd5b6001600160a01b038216600081815260026020908152604080832054858452600483528184205494845260038352818420858552909252909120546000199091019190831461380b576040805162461bcd60e51b815260206004820152600f60248201526e125b9d985b1a59081d1bdad95b9259608a1b604482015290519081900360640190fd5b81811461384c576001600160a01b03841660009081526003602090815260408083208584528252808320548484528184208190558352600490915290208190555b5060009182526004602090815260408084208490556001600160a01b039094168352600381528383209183525290812055565b6001600160a01b039091166000908152600260209081526040808320546003835281842081855283528184208590559383526004909152902055565b604080516001600160a01b0385811660248301528481166044830152606480830185905283518084039091018152608490920183526020820180516001600160e01b03166323b872dd60e01b178152925182516000948594938a169392918291908083835b6020831061393f5780518252601f199092019160209182019101613920565b6001836020036101000a0380198251168184511680821785525050505050509050019150506000604051808303816000865af19150503d80600081146139a1576040519150601f19603f3d011682016040523d82523d6000602084013e6139a6565b606091505b50915091508180156139d45750805115806139d457508080602001905160208110156139d157600080fd5b50515b613a0b576040805162461bcd60e51b81526020600482015260036024820152622a232360e91b604482015290519081900360640190fd5b505050505050565b604080516000808252602082019092526001600160a01b0384169083906040518082805190602001908083835b60208310613a5f5780518252601f199092019160209182019101613a40565b6001836020036101000a03801982511681845116808217855250505050505090500191505060006040518083038185875af1925050503d8060008114613ac1576040519150601f19603f3d011682016040523d82523d6000602084013e613ac6565b606091505b5050905080613b02576040805162461bcd60e51b815260206004820152600360248201526222aa2360e91b604482015290519081900360640190fd5b505050565b6040805160c081018252600080825260208201819052918101829052606081018290526080810182905260a081019190915290565b80516114d981614612565b803580151581146114d957600080fd5b8051600281900b81146114d957600080fd5b80516114d981614627565b805162ffffff811681146114d957600080fd5b600060208284031215613b98578081fd5b8135613ba381614612565b9392505050565b600060208284031215613bbb578081fd5b8151613ba381614612565b600080600080600060808688031215613bdd578081fd5b8535613be881614612565b94506020860135613bf881614612565b935060408601359250606086013567ffffffffffffffff80821115613c1b578283fd5b818801915088601f830112613c2e578283fd5b813581811115613c3c578384fd5b896020828501011115613c4d578384fd5b9699959850939650602001949392505050565b60008060408385031215613c72578182fd5b8235613c7d81614612565b946020939093013593505050565b60006020808385031215613c9d578182fd5b823567ffffffffffffffff80821115613cb4578384fd5b818501915085601f830112613cc7578384fd5b813581811115613cd357fe5b8381029150613ce38483016145ee565b8181528481019084860184860187018a1015613cfd578788fd5b8795505b83861015613d1f578035835260019590950194918601918601613d01565b5098975050505050505050565b600060808284031215613d3d578081fd5b6040516080810181811067ffffffffffffffff82111715613d5a57fe5b604052823581526020830135613d6f81614612565b60208201526040830135613d8281614627565b60408201526060830135613d9581614627565b60608201529392505050565b600060a08284031215613db2578081fd5b60405160a0810181811067ffffffffffffffff82111715613dcf57fe5b604052823581526020830135613de481614627565b806020830152506040830135604082015260608301356060820152608083013560808201528091505092915050565b600060c08284031215613e24578081fd5b60405160c0810181811067ffffffffffffffff82111715613e4157fe5b8060405250823581526020830135602082015260408301356040820152606083013560608201526080830135608082015260a083013560a08201528091505092915050565b600080600060608486031215613e9a578081fd5b8351613ea581614627565b602085015160409095015190969495509392505050565b600060208284031215613ecd578081fd5b613ba382613b74565b600060208284031215613ee7578081fd5b5035919050565b600060208284031215613eff578081fd5b5051919050565b60008060408385031215613f18578182fd5b823591506020830135613f2a81614612565b809150509250929050565b600080600060608486031215613f49578081fd5b833592506020840135613f5b81614612565b9150613f6960408501613b47565b90509250925092565b60008060408385031215613f84578182fd5b505080516020909101519092909150565b600080600060608486031215613fa9578081fd5b8335925060208401359150613f6960408501613b47565b6000806000806000806000806000806000806101808d8f031215613fe257898afd5b8c516bffffffffffffffffffffffff81168114613ffd578a8bfd5b9b5061400b60208e01613b3c565b9a5061401960408e01613b3c565b995061402760608e01613b3c565b985061403560808e01613b74565b975061404360a08e01613b57565b965061405160c08e01613b57565b955061405f60e08e01613b69565b94506101008d015193506101208d0151925061407e6101408e01613b69565b915061408d6101608e01613b69565b90509295989b509295989b509295989b565b6001600160a01b0391909116815260200190565b6001600160a01b0392831681529116602082015260400190565b6001600160a01b039384168152919092166020820152604081019190915260600190565b6001600160a01b03929092168252602082015260400190565b6001600160a01b039790971687526020870195909552600293840b60408701529190920b60608501526001600160801b03909116608084015260a083015260c082015260e00190565b6001600160e01b031991909116815260200190565b6001600160a01b039788168152958716602087015293909516604085015262ffffff91909116606084015260808301526001600160801b0390921660a082015260c081019190915260e00190565b600292830b8152910b602082015260400190565b600293840b81529190920b6020820152600f9190910b604082015260600190565b600293840b81529190920b60208201526001600160801b03909116604082015260600190565b6000602080835283518082850152825b8181101561423d57858101830151858201604001528201614221565b8181111561424e5783604083870101525b50601f01601f1916929092016040019392505050565b60208082526018908201527f4d6173746572436865663a204e4f545f534b59585f4e46540000000000000000604082015260600190565b6020808252601f908201527f4d6173746572436865663a20494e434f4e53495354454e545f414d4f554e5400604082015260600190565b6020808252818101527f4d6173746572436865663a2045584345454445445f4d41585f50455243454e54604082015260600190565b60208082526019908201527f4d6173746572436865663a20494e56414c49445f56414c554500000000000000604082015260600190565b6020808252601a908201527f4d6173746572436865663a2057524f4e475f5245434549564552000000000000604082015260600190565b60208082526018908201527f4d6173746572436865663a204e4f5f4c49515549444954590000000000000000604082015260600190565b60208082526017908201527f4d6173746572436865663a20494e56414c49445f4e4654000000000000000000604082015260600190565b6020808252601b908201527f4d6173746572436865663a204455504c4943415445445f504f4f4c0000000000604082015260600190565b60208082526016908201527513585cdd195c90da19598e881393d7d31357d413d3d360521b604082015260600190565b60208082526015908201527426b0b9ba32b921b432b31d102727aa2fa7aba722a960591b604082015260600190565b60208082526023908201527f757064617465506f6f6c3a2054686520706f6f6c20646f6573206e6f742065786040820152621a5cdd60ea1b606082015260800190565b815181526020808301516001600160a01b0316908201526040808301516001600160801b0390811691830191909152606092830151169181019190915260800190565b600060a082019050825182526001600160801b03602084015116602083015260408301516040830152606083015160608301526080830151608083015292915050565b600060c082019050825182526020830151602083015260408301516040830152606083015160608301526080830151608083015260a083015160a083015292915050565b6001600160801b039390931683526020830191909152604082015260600190565b90815260200190565b9283526001600160a01b03918216602084015216604082015260600190565b918252602082015260400190565b63ffffffff91909116815260200190565b60405181810167ffffffffffffffff8111828210171561460a57fe5b604052919050565b6001600160a01b0381168114611b3857600080fd5b6001600160801b0381168114611b3857600080fdfe5265656e7472616e637947756172643a207265656e7472616e742063616c6c004f776e61626c653a206e6577206f776e657220697320746865207a65726f2061646472657373456e756d657261626c653a206f776e657220696e646578206f7574206f6620626f756e64734f776e61626c653a2063616c6c6572206973206e6f7420746865206f776e6572456e756d657261626c653a2061646472657373207a65726f206973206e6f7420612076616c6964206f776e6572a2646970667358221220e2c5fccb88cf922bff818455129c003b343f3fc880dcb3827baa1dbe6e7b450764736f6c63430007060033",
  "linkReferences": {},
  "deployedLinkReferences": {}
}